:040FF800008007006E
:040FFC0000E007000A
:0200000270008C
:1080000000000120B5820700DD820700DF82070043
:10801000E1820700E3820700E5820700000000001C
:10802000000000000000000000000000A5C00700E4
:10803000E982070000000000EB820700ED820700E4
:10804000EF820700EF820700EF820700EF82070050
:10805000EF820700EF820700EF820700EF82070040
:10806000EF820700EF820700EF820700EF82070030
:10807000EF820700EF820700EF820700EF82070020
:10808000619D0700EF820700EF820700EF82070083
:10809000EF820700EF820700A5C20700EF8207000A
:1080A000EF820700EF820700EF820700EF820700F0
:1080B000EF820700EF8207000000000000000000D0
:1080C000EF820700EF820700EF820700EF820700D0
:1080D000119A0700EF820700EF82070000000000FE
:1080E0000000000000000000000000000000000090
:1080F0000000000000000000000000000000000080
:10810000000000000000000000000000000000006F
:10811000000000000000000000000000000000005F
:10812000000000000000000000000000000000004F
:10813000000000000000000000000000000000003F
:10814000000000000000000000000000000000002F
:10815000000000000000000000000000000000001F
:10816000000000000000000000000000000000000F
:1081700000000000000000000000000000000000FF
:1081800000000000000000000000000000000000EF
:1081900000000000000000000000000000000000DF
:1081A00000000000000000000000000000000000CF
:1081B00000000000000000000000000000000000BF
:1081C00000000000000000000000000000000000AF
:1081D000000000000000000000000000000000009F
:1081E000000000000000000000000000000000008F
:1081F000000000000000000000000000000000007F
:1082000010B5054C237833B9044B13B10448AFF3D0
:1082100000800123237010BD6C5800200000000076
:1082200084D9070008B5034B1BB103490348AFF3DA
:10823000008008BD000000007058002084D90700AD
:10824000154B002B08BF134B9D46A3F5803A002128
:108250008B460F461348144A121A05F013F90F4BB8
:10826000002B00D098470E4B002B00D098470020E1
:10827000002104000D000D48002802D00C48AFF387
:10828000008005F0BFF82000290001F08FF905F00B
:10829000A5F800BF00000800000001200000000059
:1082A000000000006C580020387E00200000000014
:1082B000000000000649074A074B9B1A03DD043BF8
:1082C000C858D050FBDC00F04DF8FFF7B9FF0000B4
:1082D000E8D90700B85700206C580020FEE7FEE7F9
:1082E000FEE7FEE7FEE7FEE7FEE7FEE7FEE7FEE766
:1082F0000C4B1B78062B10D10B4B1B681A070CD1AB
:108300000A4B186800F0F003302B08D000F0E000B2
:10831000A0F14003584258417047002070470120A7
:10832000704700BFE00F00F0E40F00F0E80F00F02E
:10833000094B1B78062B0CD1084B1B681A0708D178
:10834000074B186800F0F000A0F130035842584184
:1083500070470020704700BFE00F00F0E40F00F00E
:10836000E80F00F008B5FFF7C3FF28B17D4B7E4A48
:108370001B68C3F304231360FFF7DAFF10B17B4BD4
:108380007B4A1A60FFF7B4FF28B17A4B7A4A1B6820
:10839000C3F342331360FFF7CBFF20B1774AD368B2
:1083A00023F08073D360FFF7A3FF40B14FF0804309
:1083B0000022C3F80C21C3F81021C3F83825FFF7B9
:1083C000B7FF10B16E4B03221A60FFF7B1FF40B147
:1083D0006C4B05221A6001229A6700229A603F22A4
:1083E0005A60694B1B78062B50D1684B1B681907E4
:1083F0004CD1674B1B6803F0F003502B46D14FF074
:108400008052644BD2F80414C3F82015D2F8081433
:10841000C3F82415D2F80C14C3F82815D2F8101498
:10842000C3F82C15D2F81414C3F83015D2F8181468
:10843000C3F83415D2F81C14C3F84015D2F8201430
:10844000C3F84415D2F82414C3F84815D2F82814F8
:10845000C3F84C15D2F82C14C3F85015D2F83014C8
:10846000C3F85415D2F83414C3F86015D2F8381490
:10847000C3F86415D2F83C14C3F86815D2F8401458
:10848000C3F86C15D2F84424C3F87025FFF730FF09
:1084900028B1414B414A1B6803F04F031360FFF7BB
:1084A00027FF48B14FF08043D3F80024D20744BFE0
:1084B0006FF00102C3F80024394B1B68062B08D16A
:1084C000384B1B68062B01BF374A136843F480639F
:1084D0001360364AD2F8883043F47003C2F888300B
:1084E000BFF34F8FBFF36F8F4FF01023D3F80022ED
:1084F000002A03DBD3F80432002B2FDA2C4B0122A5
:10850000C3F80425D3F80024002AFBD04FF0102232
:108510001521C2F80012D3F80024002AFBD04FF036
:1085200010231522C3F80422214B1A46D3F8001455
:108530000029FBD00021C3F80415D2F80034002B29
:10854000FBD0BFF34F8F19491A4BCA6802F4E0629F
:108550001343CB60BFF34F8F00BFFDE7164B174AA5
:108560001A6008BD240300104035014074C0074064
:108570000DF0ADBA440200103C050040F0ED00E003
:10858000A005004010560040E00F00F0E40F00F09E
:10859000E80F00F000C0004058020010E40E004058
:1085A00030010010340100103C17004000ED00E0E5
:1085B00000E001400400FA05B85700200090D00305
:1085C0004B1C30B5DB00044612F003009BB20DD10A
:1085D000074D2A601A44074B1A60074B1870074B67
:1085E0001870074B1C80074B198030BD0720FCE733
:1085F000905800208C58002088580020985800205F
:1086000094580020965800202DE9F3472B4D2B88D5
:108610008B4206460C4617464CD34FF000080DF12E
:1086200007008DF8078000F087F8254B254A187859
:108630001178CBB2244909888B4238BF0133C0B2CC
:1086400038BF5FFA83F840452ED092F80080137847
:10865000DBB2994286BF0133DBB2002313709DF871
:10866000070000F08DF84FF6FF73984524D0DFF82F
:1086700060A0DAF800304FEAC80903EB090243F8BA
:108680003870A6B19CB1114B28881B68224608FBA4
:108690000030314604F0E8FEDAF800304B440020A8
:1086A0009C8002B0BDE8F0874FF6FF78D7E7002046
:1086B0009080F6E70920F4E70420F2E794580020C0
:1086C0009858002088580020965800208C58002088
:1086D00090580020F8B5124C124D264622782B787F
:1086E0009A4200D1F8BD23780F48104A07881268D3
:1086F0000F48DBB219B202EBC10C006852F831200E
:10870000BCF8041003FB070090470A4A237812883C
:10871000DBB29A4286BF0133DBB200233370DDE760
:108720009858002088580020945800209058002025
:108730008C5800209658002070B5EFF3108672B662
:108740000C4A946801239CB993600B4B0B4DD3F8F2
:10875000801029401160C3F88050D3F88410516014
:108760004FF0FF32C3F88420047006B962B670BDC2
:108770000370FAE7AC7A002000E100E0FC06FFBDE0
:1087800010B5084B9A685AB150B9EFF3108172B620
:10879000054A1C6814605C685460986001B962B650
:1087A00010BD00BFAC7A002000E100E030B53AB166
:1087B0001368DB430A4D0144814204D1D84330BDE4
:1087C0004FF0FF33F6E710F8012B5340082213F067
:1087D000010418BF2C46013A84EA5303F7D1EBE7B2
:1087E0002083B8ED10B561B1B2FBF3F403FB1424A0
:1087F000A4B244B9C0E9001484608281C3812046D8
:1088000010BD0E20FCE70920FAE782B050E8022FE5
:10881000C188B2EB324F4FF0000317BF92B241EA6A
:10882000014142EA014104E04268B2EB324F08BF25
:10883000012340E80212002AE8D18DF807309DF8A4
:108840000730002B0CBF1120002002B0704737B555
:1088500050E8013F9DB2C48925448489A54228BFC0
:108860002D1B0489A54202BFBFF32F8F002207E012
:10887000C5EA030540E80154002CE9D14FF001029C
:108880008DF803200193019B9DF803200B6002F0FB
:10889000FF0322B10B880068184403B030BD1846AE
:1088A000FBE70A884B889A4209D150E8012FC2EAB7
:1088B000024240E80123002BF7D10120704700203D
:1088C000704737B550E8023F1FFAA3F5C488A542A8
:1088D00002BFBFF32F8F00220DE0C4892544848995
:1088E000A54228BF2D1BC3EA054540E80254002CD1
:1088F000E8D14FF001028DF803200193019B9DF810
:1089000003200B6002F0FF0322B14B88006818447B
:1089100003B030BD1846FBE70A884B889A4209D15C
:1089200050E8022FC2EA224240E80223002BF7D18E
:10893000012070470020704750E8002F42EA0103F1
:1089400040E8003C9CF0000FF6D11046704750E81C
:10895000003F03EA010240E8002C9CF0000FF6D132
:10896000104670470121FFF7E7BF0021FFF7EFBF77
:1089700010B590B1D0E9012301689B1ADBB20A60FF
:10898000013BDBB2FF2B026802D10020107110BD49
:1089900011684C1C14600B70F2E70E20F7E737B536
:1089A000054600240DF107008DF80740FFF7C4FECF
:1089B0002A68696813688B4210D9591E116013F830
:1089C000014C2A8AEB6802FB04342A68AB68116800
:1089D0005B1A1179DBB2994238BF13719DF8070019
:1089E000FFF7CEFE204603B030BD37B50546002365
:1089F0000DF107000C468DF80730FFF79DFE2A6841
:108A00001368591C1160E968641A298AB4FBF1F4EF
:108A10001C709DF80700FFF7B3FE03B030BD016086
:108A20000B681146184710B40468E468A4465DF862
:108A3000044B604710B404682469A4465DF8044BF5
:108A40006047000070B508B10368ABB90C4D0D4C20
:108A50000026641B1423B4FBF3F4B44201D10020BC
:108A600009E02B6813B901361435F6E7DB692846AF
:108A700098470028F7D070BDDB69BDE87040184703
:108A8000585800206C580020014B4360002070476C
:108A9000C0D407000846704700207047024B186892
:108AA000003018BF012070479C58002008B50248CC
:108AB000FFF75BFF002008BD9C58002008B510465A
:108AC0001A4604F0D1FC002008BD00002DE9F04357
:108AD000814687B014480F4616469846FFF742FF76
:108AE0000446F0B90546AE4215D10F48FFF73DFFE9
:108AF000D9F808305BB102228DF800200022CDE9C0
:108B00000127CDE90326CDF8148068469847204612
:108B100007B0BDE8F08307EB053000F0C3FB01357B
:108B2000E1E71124F3E700BF9C5800202DE9F04154
:108B3000804686B011480F4616461D46FFF712FFC5
:108B40000446C8B9AA083146384600F0C3FB0B48B2
:108B5000FFF70BFFD8F8083053B101228DF8002041
:108B60000C9A0592CDE90147CDE90365684698471F
:108B7000204606B0BDE8F0811124F9E79C5800209A
:108B800029DF704728DF704770B50568AB6886B08D
:108B900004460E4673B114220021684604F072FCAC
:108BA000A36805932379019633B1012B0ED0AB68EE
:108BB0006846984706B070BD01238DF800302369E0
:108BC0000293E368039363690493F0E702238DF84B
:108BD0000030E3681B030293F5E708467047002066
:108BE00070470000024B187A003018BF0120704710
:108BF0008C5A0020034B187A0122B0FA80F05A7484
:108C0000400970478C5A002008B510461A4604F0F7
:108C10002BFC002008BD000008B5142200210448E8
:108C200004F030FC0348FFF7F0FD002008BD00BF52
:108C30008C5A00207C5A002010B5094C094B436027
:108C40002046FFF78FFE48B903F012FB1C23207467
:108C50004FF4EE7204490548FFF7C4FD002010BD33
:108C60008C5A0020ECD40700A05800207C5A002029
:108C700070B5234C234E237A25463BB9224923481D
:108C8000FFF71FFE306008B9606070BD02233468D2
:108C90002B72237973B1012B22D020460321FFF7D9
:108CA00073FF00232B726B6017491848BDE87040B2
:108CB000FFF732BED4E90523D21A142A28BF1422A2
:108CC000D4E903109208012A38BF0122194418443C
:108CD000FFF756FF50B11128DFD101232B72D4E7E3
:108CE000D4E903031844FFF74DFFF3E72B7C002B77
:108CF000CBD10146BDE87040022000F009B800BFAA
:108D00008C5A0020A45A0020A05A00207C5A00202F
:108D100038B5831E012B43D8224C237A002B3FD039
:108D2000022B09D103282ED01F4B00221B68E260C2
:108D30001A793AB1012A20D0637C6BBBBDE8384078
:108D4000FFF796BFD3E905128D1A142D94BF52195F
:108D500014329A619142EFD102284FF0000308BF0C
:108D600019462372104B18BF0D211868FFF70CFF2E
:108D70000E490F48FFF7D0FDDEE71A6901321A618C
:108D80005B699A42E7E7E3680133082B01D8E360A7
:108D9000D2E70023E360DFE7BDE8384003F058BACC
:108DA00038BD00BF8C5A0020A45A0020A05A0020D1
:108DB0007C5A002000F0FD03012B08D1044B002257
:108DC0005A74421E504250411874FFF751BF704709
:108DD0008C5A002010B5064C201DFFF7C3FD28B9A2
:108DE000637C1BB9BDE81040FFF742BF10BD00BF58
:108DF0008C5A00202DE9F34180460D460F4801A909
:108E000016461F46FFF723FD0446A8B11C22002189
:108E100004F038FB2D0B0123237101A9C4F8008055
:108E2000A760E56066610548FFF73BFDFFF7D2FFED
:108E3000002002B0BDE8F0810420FAE77C5A00204F
:108E40002DE9F74381468846104801A917461E467A
:108E5000FFF7FDFC0446B0B11C22002104F012FB18
:108E600000250A9BA36001A92571C4F80090C4E9FC
:108E7000037866610548FFF714FDFFF7ABFF28464E
:108E800003B0BDE8F0830420FAE700BF7C5A00205D
:108E900001600B6843604A68934204BF002343604B
:108EA0007047436843B1026891680B44436052685D
:108EB000934204BF00234360704700002DE9F04F48
:108EC000C9B008AA01F1400514464B780E781B047E
:108ED00043EA0663CE7833438E78043143EA0623AF
:108EE0008D4244F8043BF0D11024916B16464FEAB2
:108EF000F14383EA714383EA9123716A366852F839
:108F0000045F31440B444FEAB54181EAF51181EA2F
:108F1000D50101340B44402CD363E6D1D0E914E3EE
:108F20000093836D0193C36D0293036E0393436EAD
:108F30000493836E0593C36E0693DDE9057BDDE93B
:108F4000031CDDE901592B4B009E079374464FF03B
:108F50000008079B53F8042B07934FEAF12383EA99
:108F6000B11383EA716A08AB53F828301A440AEB4C
:108F7000020327EA010A01EA0C028AEA02021A4401
:108F80004FEA743A86EA05035A448AEAB40A06EAC2
:108F9000050B234083EA0B038AEAB45A08F101085F
:108FA0009A44B8F1400F02EB0903BB465244A9466C
:108FB00019D172440265009A22444265019A3244F2
:108FC0008265029A2A44C265039A1A44049B026687
:108FD0000B444366059B63448366069B3B44C36620
:108FE00049B0BDE8F08F674635468C46264619469F
:108FF0001446AEE718D5070030B5E0B10F4A104966
:1090000000240025C0E91245C0E914120D4C0E4A97
:109010000E4DC0E916420E4AC0E918520D4A82664A
:1090200002F17452A2F523020023A2F692420364D5
:10903000C266184630BD0E20FCE700BF85AE67BB98
:1090400067E6096A72F36E3C3AF54FA57F520E51FE
:109050008C68059BABD9831FF8B50446F0B10AB9FB
:109060000020F8BDD1B10D468E180027B542F7D0CB
:10907000236C15F8012BE2540133402B2364F5D106
:1090800021462046FFF71AFFD4E9123113F5007389
:1090900041F10001C4E912312764E7E70E20E0E75F
:1090A00070B50D4616460446002877D0002975D0C5
:1090B000026C8021372A02F1010381544FF0000233
:1090C00042D8382B3BD1D4E91223206C0821E1FB94
:1090D0000023104612BAE2631A0A194684F83B309C
:1090E00084F83A201A0C1B0EC4E9120184F83920C6
:1090F000214684F838302046FFF7E0FE691E76B33B
:109100000023E26EDA4001F8012FA26EDA400A7104
:10911000626EDA400A72226EDA400A73E26DDA4059
:109120000A74A26DDA400A75626DDA400A76226D21
:10913000DA400833202B0A77E3D1002070BDE254D7
:109140000133BEE7E25401333F2BFBD921462046D1
:10915000FFF7B4FE3822002104F094F9B3E7182396
:10916000226DDA4001F8012F626DDA400A71A26DBA
:10917000DA400A72E26DDA400A73226EDA400A744B
:10918000626EDA400A75A26EDA400A76E26EDA4062
:10919000083B13F1080F0A77E2D1CEE70E20CDE7A6
:1091A00043689B68184708B5436808305A7900F04F
:1091B000AEF9002008BD2DE9F0430D469BB00846EE
:1091C00099469046FFF7ECFF6E6874794C4528BFCE
:1091D0004C4607462246414602A800F08DF97279B6
:1091E00022990AA800F093F900970AAB224602A937
:1091F00005F1080003F08AFF002848F2425018BF2A
:1092000000201BB0BDE8F083044B1A5C012393409F
:109210004FF0A042C2F80C35704700BF24D60700BB
:10922000044B1A5C012393404FF0A042C2F808356A
:10923000704700BF24D6070008B50020FFF7F0FFF5
:109240000120FFF7EDFF0220FFF7EAFF0320BDE852
:109250000840FFF7E5BFC20708B501460CD54FF03F
:10926000A0430322C3F84427C3F84827C3F84C2778
:10927000C3F85027FFF7E0FF8B070AD54FF0A04354
:109280000C22C3F83427C3F83827C3F83C27C3F8A7
:10929000402708BD024AD2F80034002BFBD07047AB
:1092A00000E001400A4908B50223C1F80435BFF3C4
:1092B0006F8FBFF34F8FC1F80805FFF7EBFF002357
:1092C000C1F80435BFF36F8FBFF34F8F08BD00BFE8
:1092D00000E001400E4B10B50124C3F80445BFF374
:1092E0006F8FBFF34F8F01EB8204401AA14208D168
:1092F000074B0022C3F80425BFF36F8FBFF34F8FD6
:1093000010BD431851F8042B1A60FFF7C3FFEDE7B7
:1093100000E0014028B139B10023C1E9003018460E
:10932000704748F21050704748F21350704730B100
:10933000036848F240508B4208BF0020704748F253
:109340001050704728B148F21150914208BF0020D8
:10935000704748F21050704770B506460C461D46DF
:10936000FFF7D8FF50B9B3794AB1AB420AD11146E1
:109370002046FFF718FF08B9044B236070BD48F280
:109380001050FBE748F21150F8E700BF7052464D0D
:109390002DE9F0470C4607460F49204615469846EA
:1093A000DDE90869FFF7C3FF98B963685A79494650
:1093B00052003046FFF7C6FF58B945B108964346FC
:1093C0002A4621463846BDE8F047FFF7F4BE48F28A
:1093D0001050BDE8F08700BF7052464D10B50446EE
:1093E00038B149B141600B68984708B9044B236014
:1093F00010BD48F20150FBE748F21050F8E700BFFB
:109400006E524648F0B4134648B10768094EB74259
:109410000AD161B12AB14368F0BC5B68184748F2D1
:1094200001531846F0BC704748F20253F9E748F27E
:109430001053F6E76E524648F0B460B107680C4E20
:10944000B7420CD171B143681568DC68A5420CD3F2
:109450009B68F0BC184748F20150F0BC704748F2D6
:109460000250FAE748F21350F7E748F21450F4E7D5
:109470006E5246482DE9F041044617469846DDE90C
:109480000656FFF7ABFF60B9424639462046FFF764
:10949000B9FF30B9324629462046BDE8F041FFF712
:1094A000CBBFBDE8F0810000F8B50A4F0A4C0B4D68
:1094B000E41B0121E40829700026A64203D10223FF
:1094C0002B700020F8BD57F8363098470028F9D1A6
:1094D0000136F2E788D9070088D90700A85A00208A
:1094E00001390144814200D2704703780A7800F8BC
:1094F000012B01F80139F5E7013A024401398242B2
:1095000000D2704711F8013F02F80139F7E770B552
:1095100016460D46FFF7F0FF3246A9193044BDE864
:109520007040FFF7E9BF38B50D460446FFF7D8FF96
:1095300029466019BDE83840FFF7D2BFBFF34F8F0F
:109540000549064BCA6802F4E0621343CB60BFF3DF
:109550004F8F00BFFDE700BF00ED00E00400FA05FB
:1095600008B507281BD8DFE800F004121A1A1A04FD
:109570001A040120FFF76FFE0020FFF745FE0120CF
:10958000FFF742FE0220BDE80840FFF749BE012078
:10959000FFF746FE0220BDE80840FFF735BE08BDD4
:1095A00008B5FFF7CBFF08B5FFF7C8FF002210464C
:1095B00010B54FF4805100F041F9024608B1FFF7B1
:1095C000BDFF0848C0F5FC2100F038F90028F6D1AD
:1095D000054800F05BF804460028F0D100F01CF9C3
:1095E000204610BD0080070061950700007800F05C
:1095F0000100704741DF7047014B01221A7070472C
:10960000CC5E0020BFF34F8F0549064BCA6802F4B9
:10961000E0621343CB60BFF34F8F00BFFDE700BF95
:1096200000ED00E00400FA05024B034800221A7026
:1096300001F002BFCC5E002005960700C31E10B5E6
:109640000446042B09D8DFE803F00303080F0F00DA
:1096500009494FF4701000F039FA084B1B6853B1F8
:109660002046BDE810401847054B064800221A70F6
:1096700001F0E2FEF1E710BD29960700D05E002060
:10968000CC5E0020059607000020704738B5554B8A
:10969000554A18604FF0A0430020C3F8402701F05E
:1096A000E1FE044648B900F0E9FA012800F0918093
:1096B00041B221B1022800F09280032038BD4FF062
:1096C0008043D3F8004414F4803435D04FF4803212
:1096D000C3F800240C46454D2B6A012B3FD04FF4B4
:1096E000701400F049FB424A20211820FEF768FF61
:1096F00008B1FFF758FF3F4B1A6802F0F802B02A92
:1097000006D11A68D20742BF1A6802F04E021A60E8
:10971000FFF7BAFF0028D0D12046374900F0D6F92C
:10972000364801F039F80028C7D100F04BFBFEF7AE
:10973000D1FFFFF75FFFF8E7D3F8202502F0F8022A
:10974000A82A0AD1D3F82025D00706D5D3F820259A
:1097500002F05602C3F82025BDE70124BBE743F21F
:1097600004031A68264B9A4209D001F09BFFAA69AC
:10977000014694B1234802F081FA90B9AFE76A6BD1
:109780001CB995F86032012BEFD04FF480511E4880
:1097900002F074FA0028E8D1A1E795F8A132012B74
:1097A000E8D14FF0A043D3F81035D90397D5114B2A
:1097B0001B6813F0B10F92D101F020FF00287FF455
:1097C0007CAF124B1870124801F036FE00F024F8FE
:1097D00073E70E4B0F481C7001F02EFE6DE74FF43F
:1097E000A0247EE7D05E00200C000300B87A0020A1
:1097F000AC5A00201C050040299607003D96070042
:10980000DBE5B151597D0020187D0020CC5E0020A1
:10981000F99507000596070008B5074B4FF0FF3292
:10982000C3F88020C3F8802101F0FCFB4FF4805086
:10983000BDE8084000F02EB800E100E00346C1F3A7
:109840000B0070B520BBB3F5FE2F21D81B0B0139DF
:1098500003EB113101264FF08044994200D270BDD4
:1098600003F01F025D0906FA02F2032D05D8DFE8B6
:1098700005F00206090CC4F800260133EDE7C4F830
:109880000426FAE7C4F81026F7E7C4F81426F4E72C
:109890000720E4E730B50546204889B00022C0F52E
:1098A000FE21FFF7CBFF01F0FDFE1D4B9969002261
:1098B00001441046FFF7C2FFEFF305820023D5E90C
:1098C000004183F3148883F3108883F3118883F3B2
:1098D0001388C2F308023AB984F308884FF0FF33C3
:1098E0009E46084709B030BD4FF0FF35203CCDE91A
:1098F0000033CDE902330493CDE905514FF0807375
:10990000202269462046079303F0AEFD84F30888C1
:10991000AE466FF006031847E4E700BF008007007B
:10992000B87A002037B56FF07F42154C057BD4F82C
:1099300004358A4228BF0A46891A13444A1E942ACB
:1099400023F07F4305F5A8729BBF963B963141609B
:10995000416044F822300B4B4FF4F86043F00103B0
:109960009847094BAA00134400221A601B68019310
:10997000019B4FF48033AB40C4F8043303B030BDD7
:109980000040024070D607004041024018490A7862
:1099900084B0002A29D14FF08043A020D3F8183496
:1099A000DB035EBF134B01221A60134A00231360CE
:1099B00012680392039A114A136012680292029A83
:1099C0000F4A136012680192019A0E4A82F824032A
:1099D000102050600C4A0D48C2F80835012303607E
:1099E00002201360C2F804030B7004B0704700BF7C
:1099F000D85E002008000040004102404041024083
:109A00004441024000E100E00040024008400240C2
:109A100013B5284B1A6842B127490A6801320A6017
:109A200000221A601B680093009B244B1A68A2B1A5
:109A300000221A6022481B68027B0193019B4FF4AD
:109A4000803393401F4AC2F808334168044601BB83
:109A50008168D9B9236803B198471B4B1A6832B3A0
:109A600000221A6016481B68027F0193019B4FF485
:109A700080339340134AC2F808334169044659B110
:109A8000103002B0BDE81040FFF74CBFFFF74AFFAF
:109A9000E0E7FFF747FFE0E7816911B11030FFF71A
:109AA00041FF23691BB102B0BDE81040184702B066
:109AB00010BD00BF04410240D45E0020404102407E
:109AC000BC570020004002404441024070B50B4B9F
:109AD0001C68227B4FF480339340094A0E46C2F83B
:109AE0000833054640B1FFF751FF2660294620465E
:109AF000BDE87040FFF716BF70BD00BFDC57002007
:109B00000040024070B5074B1C680E46A060054639
:109B1000FFF73CFF266029462046BDE87040FFF76E
:109B200001BF00BFE0570020014B01221A707047AF
:109B3000D95E002070B5154DEA6A6E6AAC6CAC2A2D
:109B400013D16B6B1C44F61AEB6AAC2B13D0324664
:109B500021460F4803F07AFCA8B100F033F93146F2
:109B60002046BDE8704001F03FBA002CECD101F076
:109B7000AFFD0446E8E73246A4F58041044803F00F
:109B800065FC0028E3D1002070BD00BFB87A00203A
:109B9000008007002DE9F74F80468946A9EB0804AD
:109BA000240B02F6FF76154600F0E6F8082C28BFD5
:109BB00008242303DFF860B00193360B0DB92B4660
:109BC00026E0B4422CBFB246A2464FF000025146F6
:109BD00040462CBF2F46019F01F0EEF90346B8B96D
:109BE000FA1C22F003024946404601F0D7F9034629
:109BF00070B9DBF83030ED1BB844B9441F44CBF8E2
:109C0000307001F01FFCA6EB0A0603460028D5D0F1
:109C1000184603B0BDE8F08FB87A002010B501F007
:109C200067FD154A42F20403916CCC5803F1A3433B
:109C300003F5471303F2D7539C4218D1D2E90C32F3
:109C4000934216D0884204D10020BDE8104001F0B4
:109C5000F9BBD21A02F6FF7222F47F6222F00F02E1
:109C600019441844FFF796FF0028EDD010BD0320DB
:109C7000FCE70020FAE700BFB87A002070B5264C58
:109C8000E36AA52B33D003D8012B0BD0002070BD85
:109C9000AA2B30D0AC2BF9D1FFF7C0FF48BBFFF7A0
:109CA00049FF26E0A66C656A01F0FCFC864229D1DA
:109CB00001F0F8FC00222946FEF778FDA36A9842DD
:109CC00002BF0123C4E90703A5610025134801F081
:109CD000DDFC134B134800221A7001F0B3FB68B986
:109CE00075B1236A012B14BF01200220CFE7FFF7D3
:109CF00095FF0125EAE7FFF71DFFE6E70320C6E72A
:109D00000120C4E7236BEA1AF1181844FFF742FF59
:109D10000028DAD1CCE700BFB87A0020DC7A002036
:109D2000D95E0020299B07000A4AD2F800347BB193
:109D300009480023D2F80815D940C90748BF03F5E0
:109D4000C07103F1010348BF42F82100072BF1D194
:109D5000704700BF000001403546526EFFF7E4BF78
:109D6000044B002282B01A601B680193019B02B071
:109D7000704700BF0001014038B50E4C2278BAB9D7
:109D80000D4BD3F800248AB1D3F80455FFF7CCFF6C
:109D900040F61650A842B8BF28460849A0F54860CA
:109DA000FFF7B0FE064B4FF480321A600123237098
:109DB00038BD00BFDA5E0020000001405D9D070055
:109DC00000E100E0034BD3F800340BB1FFF7ACBF68
:109DD000704700BF000001400023C0E90232C0E923
:109DE00000118B881A440261B1F906301A444261AD
:109DF0000888003018BF0120704710B542681188EC
:109E00000346002939D002F110014160148A2CB9AF
:109E1000C2680168FFF7E0FF204610BD9078118905
:109E200000F03004302C1BD1947C04F03004302C32
:109E30001DD190881969091A19610021907810F0D4
:109E4000300F02BF986801309860908A0844196901
:109E500001441961B2F91620114459610120DCE76F
:109E600000F0F004202C02D150894143E6E700F0D5
:109E7000C000802808BF0421E0E70846CDE770B5A0
:109E8000456804460E4663681A88B24204D19B783E
:109E900003F00F03082B07D12046FFF7AEFF6368DE
:109EA000AB42F0D1002070BD0120FCE743681A44AA
:109EB000426011B101399A4201D10120704713F873
:109EC000010B01F8010FF6E72DE9F3418368044621
:109ED000884623B90027384602B0BDE8F081036800
:109EE00001220DF10701984707460028F2D0A36828
:109EF0009DF80750013B2A06A3601AD505F07F059F
:109F00000726A368002BE5D0236801220DF1070185
:109F1000204698470028DDD0A3689DF80720013B24
:109F2000A36002F07F03B3401D43130606F107064A
:109F300002D4C8F80050CEE7232EE2D1CAE770B5AC
:109F40004268927802F00F01082986B003461FD1BB
:109F500003691C6800260CB906B070BD236826731F
:109F60009D68626829466846FFF736FF6368049378
:109F700004F10C030593AB7803F0C003802B08BFFA
:109F8000231D684608BF0493FFF7D9FFA468E2E7E2
:109F900012F0C00120D102F0300010280ED15A6911
:109FA00011705A6818699378D46803F00F03072B6F
:109FB00009D10146204600F017F8CDE79006F0D50C
:109FC0005B691980C8E71289214614B103F04CFA85
:109FD000C2E703F057FABFE78029BDD1006900212D
:109FE00092060160B8D5EBE77FB50A4601466846A0
:109FF000FFF7F2FE30B16846FFF7A1FF6846FFF7B2
:10A00000FCFEF7E707B05DF804FB000030B504463E
:10A0100085B01546A9B90268114B9A4211D0102D8E
:10A0200006D82A4669462046FFF7F0FF05B030BD46
:10A03000102269462046FFF7E9FF0028F6D0103DC0
:10A04000EDE7A368AB4201D20020EFE723682A4680
:10A05000204698470028F7D0A3685D1BA560E5E778
:10A06000AD9E0700F7B50E4601A907461546FFF756
:10A070002BFFA8B1019A0123D3184FF0000404D29A
:10A08000B17801F0C001802901D1204608E0318972
:10A090009942FAD329463846FFF7B8FF019BEC54A2
:10A0A00003B0F0BD73B50E4601A905461446FFF78F
:10A0B0000BFFB8B1019BB3F5803F07D202229A187B
:10A0C00004D2B17801F0C001802901D1002009E05B
:10A0D00031899142FAD321461A4621F8023B28469B
:10A0E000FFF794FF02B070BD10B5034C82600022F0
:10A0F000C0E90041C26010BDAD9E07002DE9F347E5
:10A100000025064688462F462C46B36843B333687D
:10A1100001220DF107013046984708B3B3689DF856
:10A1200007C0013B0CF07F025FFA82F9C4F1200105
:10A13000B360A4F1200309FA03F329FA01F109FA43
:10A1400004F20B431CF0800F45EA020547EA0307BF
:10A1500004F1070402D1C8E9005702E0462CD4D12B
:10A16000002002B0BDE8F08773B50C46694616467C
:10A17000FFF7C4FF68B12389082B0CD1DDE9004546
:10A18000C6E90045DDE90023AB4206BFA24201203B
:10A19000002002B070BD042B04D1009B33601C462C
:10A1A0000025EFE7022B4FF0000004D1009B338025
:10A1B0009CB20546E6E7012BEBD1009B337003F020
:10A1C000FF04F6E737B50D4669461446FFF796FFDC
:10A1D00030B12A89082ADDE9003103D1C4E9003110
:10A1E00003B030BD042A18464FEAE37108D123605A
:10A1F0001A460B468B4206BF824201200020EFE741
:10A20000022A04D11BB223801AB2D317F2E7012A23
:10A2100003D15BB223705AB2F7E70020E0E7F7B54D
:10A220000C46002119702170116001A907461546DE
:10A230001E46FFF749FE30B9BB6813B901233370DE
:10A24000002003B0F0BD01990029F7D0CB0801F040
:10A2500007012B602170F4E713B5044605291FD8C8
:10A26000DFE801F0030F151E1E1C012201A9204684
:10A27000FFF7CCFE18B19DF90430002BF5DB02B0DE
:10A2800010BD082200212046FFF7C0FEF7E701A914
:10A29000FFF71AFE0028F2D0019AF3E70422F1E753
:10A2A0000020ECE773B50D4601A90446FFF70CFE4C
:10A2B000064618B90026304602B070BD94E80F007B
:10A2C00085E80F0001998A42F4D3A960A3685B1A5C
:10A2D000A360F0E72DE9F0435568AB7813F0C004B4
:10A2E00089B006468C46174603D0402C6AD000241D
:10A2F0000AE003F00F025E4903F03003102B51F81F
:10A30000228020D004D8CBB1204609B0BDE8F0832C
:10A31000202B1ED0302BF7D17B6929881980072A82
:10A320000AD17B6838691A89214603F0ABF87B684B
:10A330003969D868FFF758FE3A6940E03A6929461A
:10A34000C0470446E0E77B6901221A703A697968E0
:10A35000F6E7BCF1020FD7F8149024D1042A22D8D2
:10A3600004A9FFF79FFF04460028C0D0069B2BB12D
:10A370007968B9F800304A899A4205D8059B73601C
:10A38000069B002BC0D0B2E708893A6903FB002284
:10A3900004A8C04728B1B9F800300133A9F800304B
:10A3A000E4E70446EAE7B9F800306A899A429ED9A0
:10A3B0003A692989581CA9F8000003FB0122796831
:10A3C0003046BDE7D2F81080454655F8043B13B936
:10A3D000FFF742FFB5E7022914D104A9FFF762FF96
:10A3E000002884D0D8F8003079682A4604A8984715
:10A3F000044600283FF47BAF069B002BF2D1059B5F
:10A40000736081E701292BD04CB24CB105297FF450
:10A410006EAF04220DEB0201FFF7F8FD042424E0E7
:10A420000DF1040901340B2C3FF461AF01224946C0
:10A430003046FFF7EBFD00283FF459AF19F9013B17
:10A44000002BEFDB0B4B049301ABCDE9053400236C
:10A450000793D8F8003079682A4604A8984770E72F
:10A46000082201A9FFF7D2FD08240028EAD13EE71F
:10A4700078D60700AD9E07002DE9F04F91B0044655
:10A48000002604A8CDE90266FFF7A6FCA3683BBB43
:10A49000DDE9053404A89D78FFF7AFFC0028F7D16B
:10A4A00015F0300F03D1059B1B8803B10134002C3C
:10A4B00000F0A9806309002202A9934240F09C8029
:10A4C00010AA02EB830304F01F04C4F120044FF030
:10A4D000FF3053F8383CE040C31A584258410DE071
:10A4E0000DF1030301AA0DF102012046FFF797FECB
:10A4F00038B99DF80330002BCAD1002011B0BDE857
:10A50000F08F019904A8FFF7BAFC002850D1019BF5
:10A51000B3427DD3059D059A937803F00F03082B72
:10A520007FD004A8FFF769FC059B9D42F3D14FF053
:10A53000FF36019FB7426BD3089B9DF80290D4F879
:10A5400008801D684FF0010AA368002D5DD0984572
:10A550009CD12B68D3F800B0BBF1000F08D04B465C
:10A560003A4629462046D8470028C6D0AD68EBE7D2
:10A57000D3F808B0BBF800309F42F7D16A6859465B
:10A580000AA8FFF729FC6B680E9305F10C030F93E3
:10A590009BF8023003F0C003802B04BF2B1D0E93E9
:10A5A0000AAA85F80CA049462046FFF793FEDBE790
:10A5B000059B9B7813F0300F0FD1069A3F2A0CD8D9
:10A5C000510910AB03EB810102F01F0201239340FC
:10A5D00051F8382C134341F8383CE5682DB104ABF1
:10A5E0009DF8022001992046A84704AA9DF8021070
:10A5F0002046FFF76FFE10E051F8225001357FF43E
:10A600007DAF013259E7012078E798457FF43EAFEE
:10A610009DF802102046FFF71FFE00287FF436AF9A
:10A620006BE7168885E770B50C4606461546114659
:10A630002046FFF7D9FC2A4621463046BDE8704047
:10A64000FFF71ABFF0B585B00C46CD6869460746DE
:10A650001646FFF727FE68B1E06858B1A37803F00B
:10A660003003202B32462946684605D1FFF7DBFF31
:10A67000019B7B6005B0F0BDFFF7FEFEF8E7D3B5A8
:10A680000C466946FFF73AFD80B1DDE9001300276B
:10A690004A0801F0010642EAC37256EA07014FEA8E
:10A6A00053031CBFD243DB43C4E9002302B0D0BD37
:10A6B00037B50D4669461446FFF7E1FF68B12B89AF
:10A6C000082B0CD1DDE90001C4E90001DDE900231C
:10A6D0008B4206BF82420120002003B030BD042B14
:10A6E00003D100982060C117F0E7022B04D1BDF917
:10A6F0000000208000B2F6E7012B04D19DF9000094
:10A70000207040B2EFE70020E7E713B504220C46C3
:10A710000DEB0201FFF77AFC08B1019B236002B048
:10A7200010BD1146FFF7F1BF13B508220C4669466C
:10A73000FFF76CFC18B1DDE90023C4E9002302B087
:10A7400010BD1146FFF7F0BF10B513681F2B14465C
:10A7500007D900220830FEF7A3FC08B920232360A4
:10A7600010BD48F21450FBE70830FEF775BC083006
:10A77000FEF742BC062810B5044602D1002000F0C6
:10A780006DFF044B1B681BB12046BDE81040184705
:10A7900010BD00BFDC5E002008B5074B186000202C
:10A7A000FFF7E8FF054800F041FF20B90348BDE886
:10A7B000084000F0C9BD08BDDC5E002075A7070099
:10A7C0006CDF70476DDF704772DF704773DF704773
:10A7D00074DF704775DF704776DF70477ADF704748
:10A7E0007CDF70477DDF70477FDF704786DF704713
:10A7F0008FDF704790DF7047A8DF7047AADF704790
:10A80000ADDF7047AEDF7047B0DF7047B1DF704734
:10A81000B5DF704762DF704766DF704713DF704750
:10A820007FB50023CDF80A30ADF80E300A4BADF8F5
:10A8300006109B89ADF8083001238DF80A300DF120
:10A840000603CDE90430054B02A91888FFF7DAFFAB
:10A8500007B05DF804FB00BF4A6F0020E6570020F8
:10A8600001460148FEF7C1B89CD9070070B518220F
:10A870008CB000210DEB020002F004FE28230893A7
:10A8800016231F4CADF806300023CDF80E30CDF85E
:10A890001230ADF8163002230926062223702371E8
:10A8A00059230125A27063710322FE230DF10601D5
:10A8B000A0198DF818508DF82D500294ADF80C6049
:10A8C0006570E270A371FFF78DFFB8B9BDF806306F
:10A8D00026725A19E271BDF80C200A4C134402A9E1
:10A8E00006AA2046ADF80C30FFF76EFF30B920788D
:10A8F000FFF76EFF29462078FFF768FF0CB070BDA8
:10A900005E6F0020E45700202DE9F04103881F2BE3
:10A910008AB0044600F0C3802AD8112B57D007D83C
:10A92000012B00F0CD80102B43D00AB0BDE8F081A0
:10A93000142B00F043811A2B34D0132BF5D10023B4
:10A94000A24CADF812300223ADF8103004AA02ABCD
:10A9500042F6052120880593FFF752FF08B1FEF764
:10A9600022FE00231A4685212088FFF73DFF86E05E
:10A97000512B00F0AB800ED8232B00F08880502B99
:10A9800039D0212BD1D1002304A98088ADF8103013
:10A99000FFF72EFF73E0552B59D0562B00F0868021
:10A9A000522BC2D100231A461946A088FFF72EFF6A
:10A9B00065E0864B82881A80854A12681C460AB177
:10A9C0000120904783492088FFF704FFADE77F4BC4
:10A9D0004FF6FF721A80804B1B685A0704D4FFF7AA
:10A9E00045FF08B1FEF7DFFD794B1B68002B9CD0BB
:10A9F0000220984799E7794EC288B3889A4294D149
:10AA00007748FDF7CCFF054600288ED0228A04F156
:10AA1000120102F029FD1822002104A802F032FDE3
:10AA200008238DF810306F4B06936F4B0596CDE9D8
:10AA3000073504A8238AADF8243000F07BFC0028F9
:10AA40003FF473AF29466648FDF7CFFF6DE7C18835
:10AA5000F6291AD8CB1E9B070DD0CB1F9BB2013B0A
:10AA60005A4202F0030203F0030301F1FF3158BF21
:10AA70005342C91A89B2554B1888FFF7C9FE0028FE
:10AA80003FF453AFFEF78FFD4FE7F721F3E70022C6
:10AA900004A98088CDE90422FFF7ACFEEFE74B4B19
:10AAA00000F108011888FFF795FEE8E78379002B8D
:10AAB0007FF43BAF454B13211888FFF78DFEDEE78F
:10AAC000424B00211888FFF7A7FED8E78379002BB7
:10AAD0003FF42BAF022B7FF428AF404900898A89CD
:10AAE00090420E467FF421AFA27B012A7FF41DAF76
:10AAF00000220120CDE904228DF81600208AADF84D
:10AB00001800324D608AADF81A0004F11400079065
:10AB1000ADF80A2001AF02AA098A28888DF8103002
:10AB2000ADF808300397FFF76BFEA84660B93846CA
:10AB3000FEF75CFD40B940F2FD1304A92888ADF88A
:10AB40001430FFF761FEF0E6002304A9B8F8000016
:10AB5000ADF81430FFF758FE014600287FF4E5AE4B
:10AB6000182204A802F08EFC237D1E4A8DF81030B6
:10AB7000022B0596069218D0062B10D0012B10D16F
:10AB80001A4B1A881A4B1A80637DD4F81620089342
:10AB9000012B099205D1174800F060FD01E0637DAB
:10ABA000089304A800F0C6FBBFE6A27D637D43EADC
:10ABB00002230E4A13800E4A1380F2E700231A463E
:10ABC00019468088FFF712FE59E700BFE6570020BC
:10ABD000846F002086D80700806F00204A6F002015
:10ABE0009CD9070065AC070061A80700886F0020AA
:10ABF0008A6F002088D9070038B5154A13680446C3
:10AC000013F0010022D013498C421ED0124908884B
:10AC10004FF6FF71884213D043F0040313211360F1
:10AC2000FFF7DAFD90B90D4DC82445F001054FF44A
:10AC30007A40A847013CFAD1BDE8384001F0D8BAC3
:10AC4000074B1878FFF7C4FDF6E7002038BD00BFBA
:10AC5000806F002088D90700E657002080D80700C1
:10AC6000E457002010B5044686B01122002101A847
:10AC700002F008FC2378082B0BD1374A3749138898
:10AC80000988013B9BB21380D9B1D3B9032311804A
:10AC90002370627823788DF805306021012A8DF8C1
:10ACA00004108DF806200ED00B2A12D100F092F974
:10ACB0008DF80700002000F087F9042101A8FFF7B4
:10ACC000AFFD06B010BD062B05D0082B29D0032BF5
:10ACD00027D00321F2E7E1688DF80710D4E90123BA
:10ACE000080A8DF80800080C090E8DF80A10110AE0
:10ACF0008DF80B208DF80C10110C120E8DF80E2013
:10AD00001A0A8DF80F308DF810201A0C1B0E8DF8D2
:10AD10000D108DF809008DF811208DF812300F21DB
:10AD2000CCE7D4E90123110A8DF807208DF808102B
:10AD3000110C120E8DF80A201A0A8DF80B308DF8BE
:10AD40000C201A0C1B0E8DF809108DF80D208DF8B3
:10AD50000E300B21B2E700BF8A6F0020886F002001
:10AD60002DE9F043444B95B005464FF6FF721A802B
:10AD700001204FF659632A4602A98DF80A00ADF862
:10AD80000830FFF739FD0446002871D13B4B04AA77
:10AD900003F11007164618685968144603C40833AF
:10ADA000BB422246F7D1A91C3046FFF733FD0446CB
:10ADB00000285DD101461C220DA802F063FB9DF81E
:10ADC0003430ADF8044043F004038DF834300223EE
:10ADD000ADF80C30AB788DF80E3004F0F80343F08A
:10ADE00003038DF80630F423CDE90A44ADF82C3086
:10ADF0002B4601AE4FF0110903AF33F8040B0C944E
:10AE000008AA0DA98DF80590CDE90876FFF7F6FCA4
:10AE1000A046044660BB01461C220DA802F032FB8E
:10AE20009DF83430ADF8044023F0180343F01803C4
:10AE30008DF834300123ADF80C30AB788DF80E303E
:10AE40001723CDE90A44ADF82C302B4608F0E8086A
:10AE500048F0130833F80C0B0C9408AA0DA98DF8D0
:10AE600005908DF80680CDE90876FFF7C7FC04460B
:10AE7000204615B0BDE8F083E657002068D80700EB
:10AE800030B5334C236813F0010585B05DD1314BEB
:10AE900018603148FDF76CFD029500F0B6F8002807
:10AEA0004CD12E48FFF7BAFC002847D101F062F9D7
:10AEB000002843D102A801F02BFA00283ED102A9B4
:10AEC000012001F02FFA002838D102A801F092FAEF
:10AED000002833D100F082FB30B1214800F072FB32
:10AEE000236843F002032360112302A88DF8043085
:10AEF000FFF768FC10BB9DF8093002A801338DF8FC
:10AF00000930FFF75DFCC8B923689B0718D51449C1
:10AF10008869043182B201A8FFF762FC70B9114858
:10AF2000FFF75CFC50B91048FFF71AFF30B9FFF784
:10AF30009DFC18B9236843F00103236005B030BDC0
:10AF40000A4802F0A7FA0949E4E70020F6E700BF43
:10AF5000806F0020846F00209CD9070000800700CC
:10AF6000E05E002086D807004A6F002078D80700EE
:10AF700043690BB1C0681847704700000449054B8E
:10AF80000022904208BF19460348FDF748BD00BFA4
:10AF9000F8D40700CCD407005858002007B5009318
:10AFA00013460A4601460348FDF73DFD03B05DF830
:10AFB00004FB00BF5858002013460A4601460148CA
:10AFC000FDF738BD58580020014B18700B20704712
:10AFD0008C6F0020024B002218781A70704700BF57
:10AFE0008C6F002018DF704730B585B00546102201
:10AFF0000C466846002102F045FAA408684601950F
:10B000000294FFF7EFFF05B030BD1FB50023CDE977
:10B0100001330393684602230093FFF7E3FF05B073
:10B020005DF804FB4FF000534FF480521A6000208B
:10B0300070470000014B06201B681847986F0020DE
:10B040000A2803D90B38C0B2FFF7BEBF7047000013
:10B0500010B5044686B00020FDF7F4FC014630B17F
:10B06000164A18212046FDF7CFFA06B010BD182267
:10B07000684602F007FA04238DF80030104A114B9D
:10B08000116D1B68994211D10F4B186800F03AFFFF
:10B090008DF80100FFF7D4FFD4E901138DF801000A
:10B0A00068469847094800F0CDF9DEE701238DF89E
:10B0B00001306846D4E901139847D6E751B007003C
:10B0C000B87A0020906F0020946F002035B0070000
:10B0D000F0B5044687B0162200210DF1020002F0FF
:10B0E000D1F923788DF8003001220C2B8DF8012046
:10B0F00000F214819A4012F4AD7F15D1510706D4A5
:10B10000D30440F10B81864B07201B689847D4E994
:10B110000113684698479DF80130012B00F0F38039
:10B120007F4B05201B68EDE0062B7E4A01D0012BEA
:10B1300001D1216911701178012904D0022954D05C
:10B140000023137099E0013B072BE0D801A252F8CD
:10B1500023F000BF75B107000FB10700DFB1070092
:10B16000B3B107000FB10700D9B107000FB1070055
:10B170008DB107006A4B03201B689847606900F097
:10B18000CBFCFFF75DFF8DF80100C0E7A18A2069C5
:10B1900000F0DAFCFFF754FF634B8DF80100DA6B27
:10B1A0001B6C0293E3680192002BB0D02069984792
:10B1B000ADE75E495E4800F015FDFFF741FF01284D
:10B1C0008DF80100A3D1002000F03CF900289ED0AA
:10B1D0000A238DF801309AE74FF400730393524B22
:10B1E000DA6B1B6C0192029391E7013B072B8ED81F
:10B1F00001A252F823F000BF19B207000FB10700F7
:10B20000D7B20700E1B207000FB107000BB3070088
:10B210000FB107007FB2070000F0B6FC08B90823A1
:10B22000D7E762690AB90323D3E7C2F30B0333B14B
:10B230003D4B3E495B6D096813448B42F3D1B2F537
:10B24000805F01D90423C4E7374B3849586D09683A
:10B2500015188D42E3D85A64DA6C9A64186518633D
:10B26000334B61691B6801F6FF710022090B18441A
:10B27000FFF7A2FE00283FF44AAF0523A9E700F03C
:10B2800083FC0028CBD0284DA18AD5E914329B1A23
:10B290006A6C0B449342C6D8254B2E6B1B68206901
:10B2A00005F148021E44FDF781FAE368A28A21698C
:10B2B00007463046FFF772FE08B1E36876E7A28AD8
:10B2C0002B6B029713442B63A38A2A6DAF6413443C
:10B2D0002B6501931BE7144B9A6C02921B6DF8E7E8
:10B2E000114BD3E91402596C821A8A4297D19A6C95
:10B2F0005865002120465964DA64FFF7A9FE084B1F
:10B300001B680420984707B0F0BD074B9A6C1B6D73
:10B3100001934FF4805302920393F8E6022358E717
:10B32000986F0020E8570020B87A0020906F002026
:10B33000946F002083681BB1024A1821FDF764B99D
:10B3400007207047D1B0070038B50546C0B10120CD
:10B35000FFF714FE044648B900F0D0FB00F014FCDF
:10B3600030B9084B00201D60FFF72EFE204638BD87
:10B370000549064800F036FC0128F2D00324F5E721
:10B380000724F3E7986F0020906F0020946F00204F
:10B390002DE9F04115464FF46072064688461F4677
:10B3A00002F054F828B915B90020BDE8F081A8478B
:10B3B000FAE7002201213046FFF7FEFD70B94FF495
:10B3C00060724146384602F04FF82B464FF46072E7
:10B3D00039463046FFF7E2FD0028E5D00320E4E7D8
:10B3E00070B50D4C0646002258212046FDF7DEF9C7
:10B3F000002244F8040CC32104F51770FDF7D6F9B8
:10B40000251FC4F8580232462946044B0448BDE8BB
:10B410007040FFF7BDBF00BFBC7A00209C6F0020CA
:10B4200000F0070002460248024B0068FFF7B0BF79
:10B43000EC5700201C7300200149FFF7F3BF00BF49
:10B4400000F0070038B505460020FFF7C9FF0446A5
:10B4500018B903492846FFF7E5FF204638BD00BF6D
:10B46000B87A00202DE9F041FFF788FD0246002858
:10B4700072D13D4C2368013357D05821201DFDF770
:10B4800095F925682A1A55425541384FDFF8E08072
:10B490003E683368013362D000225821301DFDF729
:10B4A00085F93368834242D17468012C0AD00022A6
:10B4B000C32106F51870FDF779F9D6F85C42231A16
:10B4C0005C425C41ADB34FF460722749284801F0FB
:10B4D000CBFF64B1396827485422043101F0C4FF1E
:10B4E000396825484FF432725C3101F0BDFFD8F85D
:10B4F0000440012C2CD12149402201F5E47001F0D7
:10B50000B3FF1F491C2201F5E47001F0ADFF1D4996
:10B5100088F8A1420023042201F2862088F86032D4
:10B5200088F8E23201F0A0FF0FE00546ADE7002405
:10B53000C8E724B14FF4607239680D48D5E74FF47D
:10B54000607200210A4801F09DFF0223C8F8043010
:10B550000020FFF777FF00B10320BDE8F081002D48
:10B56000EDD00024AFE700BF00F00700EC5700204B
:10B57000B87A0020BC7A0020147B0020147C0020C4
:10B58000547C0020D47A002029DF704738B50C4D58
:10B590000446D5F8643378B101330FD10022182165
:10B5A0000430FDF703F92060214605F559700722A4
:10B5B000BDE83840FFF7E8BF0E2038BD0820FCE7A3
:10B5C00000F0070008B528B11C22034901F04CFF28
:10B5D000002008BD0E20FCE764F3070010B5064C00
:10B5E000002218212046FDF7E1F854F8043C1B1A0C
:10B5F0005842584110BD00BF68F3070010B50A4C0F
:10B60000D4F82433D4F864231340013309D04FF421
:10B61000FE20FDF747FEC92221464FF4FE20FDF72C
:10B6200059FE002010BD00BFB87A0020F8B5094EC1
:10B63000094CA41B0746E4080025A54201D10020BF
:10B64000F8BD56F83530384698470028F8D101350E
:10B65000F3E700BF88D9070090D90700F8B5094E75
:10B66000094CA41B0746E40800250436A54201D175
:10B670000020F8BD56F83530384698470028F8D1F4
:10B680000135F3E788D9070090D9070008B50C22E7
:10B69000002101F0F7FE024B00221A6308BD00BF33
:10B6A000B87A002043F204031A68084B9A4201BF9B
:10B6B00043F20803186800F6FF7020F47F600CBFA7
:10B6C00020F00F004FF48050704700BFDBE5B15110
:10B6D00008B5FFF7E7FF054B9B69184400F6FF70BC
:10B6E00020F47F6020F00F0008BD00BFB87A002072
:10B6F0004FF48050704700002DE9F84F1F46224B51
:10B70000DFF890A01E6A044615464FF0000843F289
:10B7100004095FFA88FBBBF1010F14D0BBF1020FE3
:10B720001DD0FFF7D5FF65B1721E53425341174A32
:10B73000101AA04200D3F1B1ABB1A0421BD2042039
:10B7400020E02B46F3E7FFF7ADFF37B9D9F800301B
:10B75000B3EB0A0318BF0123E9E75B46E7E70123E0
:10B760004FF48050E3E708F10108B8F1030FD0D19E
:10B77000A042E4D302E0BBF1000F02D00448FFF77F
:10B7800085FF0020BDE8F88FB87A00200050070040
:10B79000D07A0020DBE5B15190F8552012F0FB0F74
:10B7A00007D190F8643023B1836ECBB10B600120D8
:10B7B000704712F0010303D090F8563003B1836D47
:10B7C0009207F2D590F85C20002AEED0054A006E70
:10B7D000C2F5FC22904201D80344E6E704207047FA
:10B7E0000F2070470080070010B5084C4FF400721E
:10B7F000FF21204601F046FE20220021A4F1240072
:10B8000001F040FE002344F82C3C10BD147B0020C6
:10B8100030B55B68DA680D4B9A4208D10C490A686A
:10B8200012B90C4A14681CB10B4B00221A7030BDBF
:10B83000D0E901341C4413F9015B002DA4EB030093
:10B84000F9DB0B601060044B0122EFE744D70700DF
:10B85000C4760020C0760020C876002010B543F2E0
:10B860000403194A1C68944201462BD042F2040397
:10B87000C358981A434243419442184621D142F298
:10B880000403CB58A3421CD14FF4405301F500529E
:10B890001B781278142B81BF43F214030B481B68EA
:10B8A000B3FBF0F398BF0023142A89BF42F21402BD
:10B8B00000208858054A88BFB0FBF2F0181A18BF5C
:10B8C000012010BD0023D7E7DBE5B15140420F0056
:10B8D0002DE9FF472F49304D8A6B304C304FDFF850
:10B8E000D490DFF8D4A06E465C313046FEF7FCFB06
:10B8F00096E80F0085E80F0000212A4B39704FF4BD
:10B9000047722046C9F80010CAF80010EB6001F039
:10B91000B9FD224624492846FEF785FE20B90027B6
:10B92000384604B0BDE8F0873F78002FF7D094F890
:10B930006C3194F800801BB3B8F1000FEFD194F88C
:10B940007231002BEBD0DAF80020D9F80010304625
:10B95000FEF7CAFB96E80F0085E80F004FF4B272BD
:10B96000414604F5BA7001F08DFD04F5BA720F4935
:10B970002846FEF758FE0028D1D004F5BA7406E038
:10B98000B8F1000FCBD0A379002BC8D00834084BF6
:10B990001C60C5E7B87A0020E8790020CC7600204A
:10B9A000C876002011B80700F8D7070044D7070071
:10B9B000A47A0020C4760020C076002000B591B0A3
:10B9C000FDF772FD684620220749FDF7A0FD6A4693
:10B9D000402306490648FDF7BFFC064B01221A70BA
:10B9E00011B05DF804FB00BF28D60700F8790020ED
:10B9F00018D607009C760020F0B5A3B006460F4687
:10BA000015461C4678222023002104A8029301F049
:10BA100039FD00230393194B1B780BB9FFF7CEFFB9
:10BA20002FB336BB02AB164E01930096289B1549E7
:10BA3000224604A8FDF71EFDE8B9402D1BD1124C8B
:10BA40002A463946204601F00FFD20212046FDF709
:10BA50006AFDCDE90045029B0C49324603A8FDF77B
:10BA600097FC00280CBF0120052023B0F0BD132057
:10BA7000FBE71620F9E70A20F7E700BF9C760020D5
:10BA8000407A00209CD60700607A0020F8790020D8
:10BA9000F0B5ABB004460E4617461D46782220236B
:10BAA00000210CA8039301F0EDFC114B1B780BB99E
:10BAB000FFF784FF2DB12146202204A8FDF71CFDCD
:10BAC00004AC03AB0B4D019300953B4632460A494B
:10BAD0000CA8FDF7CFFC48B920222146284601F0EA
:10BAE000B5FCB0FA80F040092BB0F0BD0020FBE7B8
:10BAF0009C7600209D7600209CD6070008B5044B5C
:10BB0000986B08B1FFF7E4FE024B187008BD00BF48
:10BB1000B87A0020A07A002010B5044658B1B0F5DC
:10BB2000007F0AD8064B00221A70FFF75DFE054B16
:10BB300001209C6310BD0320FCE70420FAE700BF4E
:10BB4000A07A0020B87A002070B50E4C0646E06B53
:10BB5000A36B42189A420D4611D85C300A46204425
:10BB6000314601F081FCE36B04F140022B4429468D
:10BB70003046E363FCF71AFE2064012070BD032009
:10BB8000FCE700BFB87A0020014B1878704700BF6F
:10BB9000A07A002013B5104C94F86C21B2B194F83F
:10BBA000D802B4F8DA2204F5377104F5B8740B4BF7
:10BBB0001B6800930A4B1B68FFF71EFF012809D181
:10BBC000201D02B0BDE8104000F0A0B9114610469B
:10BBD0000434ECE702B010BDCC760020C076002023
:10BBE000C47600202DE9F0411F4BD3E90E329A4272
:10BBF00007460D4633D1DFF8788098F800604EB1E3
:10BC0000FFF766FD194B386029461868BDE8F0411A
:10BC1000FFF7C2BDFFF75CFE18B3FFF7BBFF0128BB
:10BC20003E6004462E6017D1104B29461868FFF776
:10BC3000B3FD012804460FD1034632463146286839
:10BC4000FFF75AFD38B9FFF743FD88F80040386028
:10BC50002046BDE8F0810424FFF7C6FDF8E708247C
:10BC6000F6E70524F4E700BFB87A0020A47A0020A4
:10BC7000A07A002001237230FFF70ABF37B503789E
:10BC80000D461146032B03D8DFE803F022051019F7
:10BC9000002003B030BDD0F8014000222846FCF758
:10BCA00085FD844214BF00200120F2E70A460023EC
:10BCB0002946013003B0BDE83040FFF7E9BE0091EE
:10BCC0002B46411C40220020FFF796FE0128E9E7A1
:10BCD0000120DEE72DE9F041A2B004460D461746EB
:10BCE00000217822984604A8202303939DF8A060A1
:10BCF00001F0C8FB41220021204601F0C3FBB5F84A
:10BD000094300BB195F896602670032E1ED8DFE8AC
:10BD100006F00902111F002241463846FCF746FD95
:10BD2000C4F80100424639462046FFF7A7FF22B07B
:10BD3000BDE8F08103AB0193631C00933A46434690
:10BD4000074904A8FDF796FB0028EBD00020EEE79A
:10BD5000B5F8982005F19A01601C01F085FBE1E738
:10BD60009CD607002DE9F047604B1D68A4B004463F
:10BD70000F4690460A4601462846FFF77BFF0028FB
:10BD800000F0AA8095F855601EBB4FF00109CDF870
:10BD900000903B462246294613A8FFF79BFF002848
:10BDA00066D0B8F1000F54D0412213A9504801F0D9
:10BDB0005BFB504BC3F82C901E626A689A600022AD
:10BDC00039462046FCF7F2FC4A4B0125C3E90970CD
:10BDD0007DE04122002102A801F054FB06F0010998
:10BDE0004122002113A806F0020601F04BFBB9F135
:10BDF000000F32D042F20403E25803F1A34303F5EB
:10BE0000471303F2D7539A4232D1D5F858A00AF516
:10BE1000FF520AF6FF73C3F30B031F32D21A42F22A
:10BE20000803E358934223D32046FFF717FD00B1E0
:10BE3000F6B10123009322465346294602A8FFF794
:10BE400049FFA8B1AB6DE218FB1A4EB9B8F1000F6B
:10BE500010D1284B01255D6144E03B462246F4E7C2
:10BE60000021009113A82946FFF734FF0028EDD1E7
:10BE7000052532E0DFF87C80B9F1000F20D02046A4
:10BE8000FFF7ECFC18B108F11800FFF7FFFB4122A7
:10BE900002A9194801F0E8FA002E14BFAC23A5232B
:10BEA000C8F82C30AB6DC8F83430002E87D0412252
:10BEB00013A9124801F0D8FA6B68C8F80C307EE775
:10BEC000AA23C8F82C30F0E70D48FFF7DFFBFFF797
:10BED0008BFC084B9C6405E01725B8F1000FF3D1EB
:10BEE000FFF782FC284624B0BDE8F087A47A002042
:10BEF000597D0020B87A0020187D00209A7D00200E
:10BF0000DC7A00200122FFF72DBF0000F0B590F889
:10BF10005430002B53D090F85530032B4FD890F865
:10BF20006E20032A49D1027A002A48D0C268342AF6
:10BF300047D143F20401028A0C6823498C422CD178
:10BF400052B14169F1B1D2B2002100F1140543F2BE
:10BF50000C06CCB2A24201D8122311E055F8217090
:10BF60003488A74201F10101F3D102780AB3012B11
:10BF70004268164B17D89B689A4234BF102301239E
:10BF80001846F0BD13B9012AE6D8EEE713F1FF32E7
:10BF900018BF0122002AE8D1DEE712B14269002A67
:10BFA000DAD10278F6E7DB689A428CBF01231023CE
:10BFB000E6E7012B18BF0F23E2E71423E0E70F2386
:10BFC000DEE71123DCE700BFDBE5B151B87A0020E2
:10BFD00038B1054B0360054B436001230372002019
:10BFE00070470E20704700BF17C00700F1BF070061
:10BFF00069B10B78022B0CD1022804D003280CBFA6
:10C0000011200820704703230B70002070470E207A
:10C0100070470820704710B50C4681B10B78042B8F
:10C0200004D8DFE803F00E05030E0E00112010BD4A
:10C03000FFF7ACFA0028FAD102232370F7E70E20AD
:10C04000F5E70820F3E7000070B5144B144A0C2103
:10C05000D21AB2FBF1F2816911F8025C044635B9DB
:10C0600000690021914205D1012323600EE04FF0C9
:10C07000FF30F6E71E68AE420CD1461C07D19D6822
:10C08000D4E90001D4E90223A847206070BD5E68AE
:10C090008642F4D001310C33E4E700BF90D90700A9
:10C0A0009CD907001EF0040F0CBFEFF30880EFF3DC
:10C0B0000980FFF7C9BF00BF10DF704711DF70476D
:10C0C00013B5044609496846FCF7E2FE019808B931
:10C0D00002B010BDD0E900312046984718B168463B
:10C0E000FCF7DFFEF2E71120F2E700BF94D807006B
:10C0F00013B5044607496846FCF7CAFE019B0BB915
:10C1000002B010BD2046D3E9002190476846FCF7F5
:10C11000C8FEF3E7ACD80700064B9A6822B11A684C
:10C1200022F480021A607047034B4FF48002C3F878
:10C1300080207047AC7A002000E100E00B4991F8C4
:10C1400016335A09EC231341DB0706D5084B9A68CE
:10C150003AB94FF480030B60704742F20200FDF7DA
:10C1600022BA1A6842F480021A60704700E100E0C7
:10C17000AC7A0020F7B5194F3C7864BB184E012506
:10C1800020463570FFF79CFF112821D02046FFF78D
:10C19000AFFF144B8DF80340186801900DF10300B8
:10C1A000FCF7CAFA104901A8FFF786FF0446B0FA67
:10C1B00080F0400938709DF80300FCF7E1FA3CB9C3
:10C1C0000A4B34701C70FFF7B9FF2846FFF790FF49
:10C1D000204603B0F0BD0824FAE700BFA97A00208A
:10C1E000A87A00208ED80700A1950700AA7A00201F
:10C1F000F7B5154F3B781BB3144E01203070FFF795
:10C200005FFF11284FF000051CD00220FFF770FFE0
:10C210000DF107008DF80750FCF78EFAFFF74EFF7F
:10C2200004469DF807003D70FCF7AAFA2CB934705B
:10C23000FFF772FF0320FFF75BFF204603B0F0BD5E
:10C240000824FAE72C46F8E7A97A0020A87A00200B
:10C25000054B1B7833B1054B1B780BB1FFF7C8BFFB
:10C26000FFF788BF08207047A87A0020A97A00202D
:10C27000014B1878704700BFA97A002007B508491C
:10C280006846FCF705FE019B13B903B05DF804FB9B
:10C29000D3E9002090476846FCF703FEF3E700BFB0
:10C2A000A0D80700FFF7EABF60DF704769DF70477B
:10C2B00061DF704730B5114DADF5017D4FF4FA7473
:10C2C0000DF1020103A8ADF80240FFF7F1FF70B9CC
:10C2D000294601A8FCF7DCFD029B002BF0D003A847
:10C2E000D3E90021904701A8FCF7DBFDF4E705281E
:10C2F00001D0FDF758F90DF5017D30BDB8D8070024
:10C30000024B1B780BB1FFF7D5BF7047AB7A00200B
:10C3100018B1034B0360002070470E20704700BF28
:10C32000B8570020F0B5074685B00D4600295DD00E
:10C330002F4B0B600C22002101A801F0A3F801266D
:10C3400006232A68ADF8083001A920208DF8047072
:10C350008DF80660FFF7AAFF0C22002101A801F06A
:10C3600091F800242A688DF8056001A94020ADF8F5
:10C370000640FFF79BFF0C22214601A801F082F83E
:10C38000F7232A68ADF8063001A923208DF8047040
:10C39000FFF78CFF0C22214601A801F073F82A68F0
:10C3A0008DF8046001A93046FFF780FF0C2221467A
:10C3B00001A801F067F84FF4B0632A68019301A95E
:10C3C000A120FFF773FF0C22214601A801F05AF8C3
:10C3D0009DF804302A6864F3000301A9A0208DF8B9
:10C3E0000430FFF763FF204605B0F0BD0E20FBE7E9
:10C3F000B857002008B5FFF757FF10B9014B0122CD
:10C400001A7008BDAB7A00204BDF70471FB50D4C8A
:10C4100001A8FFF7F9FF70B9214602A8FCF738FD23
:10C42000039B002BF4D00198D3E90021904702A888
:10C43000FCF737FDF4E7052801D0FDF7B4F804B0A8
:10C4400010BD00BFC4D807008B1802448B4200D136
:10C45000704713F8010D02F8010DF7E70000000026
:10C46000C3F10803DB0070B50133002403A500BF4E
:10C470005B1920C940CAAD1920C0184720C940CA5D
:10C48000754120C020C940CA754120C020C940CA9A
:10C49000754120C020C940CA754120C020C940CA8A
:10C4A000754120C020C940CA754120C020C940CA7A
:10C4B000754120C06441204670BD00BF00000000EF
:10C4C000C3F10803DB0070B50133002403A500BFEE
:10C4D0005B1920C940CAAD1B20C0184720C940CAFB
:10C4E000B54120C020C940CAB54120C020C940CABA
:10C4F000B54120C020C940CAB54120C020C940CAAA
:10C50000B54120C020C940CAB54120C020C940CA99
:10C51000B54120C06441B4FA84F0400970BD00BF49
:10C520002DE9F04F08B4F8CA04B451F8042BA3FB6A
:10C53000028940F8048B4FF0000AE4FB629A4FF046
:10C54000000BE5FB62AB4FF0000CE6FB62BC4FF06A
:10C55000000EE7FB62CE51F8042B4FF00008E3FB1E
:10C56000628940F8048BE4FB629AE5FB62ABE6FB70
:10C5700062BCE7FB62CE51F8042B4FF00008E3FBEE
:10C58000628940F8048BE4FB629AE5FB62ABE6FB50
:10C5900062BCE7FB62CE51F8042B4FF00008E3FBCE
:10C5A000628940F8048BE4FB629AE5FB62ABE6FB30
:10C5B00062BCE7FB62CE51F8042B4FF00008E3FBAE
:10C5C000628940F8048BE4FB629AE5FB62ABE6FB10
:10C5D00062BCE7FB62CE40F8049B40F804AB40F835
:10C5E00004BB40F804CB40F804EB0CBC052B00F076
:10C5F0001E810C68A0F11400A1F11401A2F1140233
:10C6000052F804EB4FF0000550F8046BE4FB6E5653
:10C6100052F804EB50F8047BE4FB6E6752F804EB2D
:10C6200050F8048BE4FB6E7852F804EB50F8049B4E
:10C63000E4FB6E8952F804EB50F804ABE4FB6E9A0D
:10C64000A0F1140052F8044B51F804EB4FF0000C29
:10C65000E4FB6EC540F804CB51F804EBE4FB6E56E6
:10C6600040F8045B51F804EBE4FB6E6740F8046BA0
:10C6700051F804EBE4FB6E7840F8047B51F804EBCE
:10C68000E4FB6E8940F8048B51F804EBE4FB6E9AEE
:10C69000A0E80006062B00F0CA800C68A0F1180084
:10C6A000A1F11801A2F1180252F804EB4FF00005B5
:10C6B00050F8046BE4FB6E5652F804EB50F8047B20
:10C6C000E4FB6E6752F804EB50F8048BE4FB6E78E1
:10C6D00052F804EB50F8049BE4FB6E8952F804EB2B
:10C6E00050F804ABE4FB6E9A52F804EB50F804BB2C
:10C6F000E4FB6EABA0F1180052F8044B51F804EBC8
:10C700004FF0000CE4FB6EC540F804CB51F804EB8D
:10C71000E4FB6E5640F8045B51F804EBE4FB6E67F3
:10C7200040F8046B51F804EBE4FB6E7840F8047BAE
:10C7300051F804EBE4FB6E8940F8048B51F804EBEC
:10C74000E4FB6E9A40F8049B51F804EBE4FB6EABFB
:10C75000A0E8000C072B6AD008B40C68A0F11C00FC
:10C76000A1F11C01A2F11C0252F804EB4FF00005EC
:10C7700050F8046BE4FB6E5652F804EB50F8047B5F
:10C78000E4FB6E6752F804EB50F8048BE4FB6E7820
:10C7900052F804EB50F8049BE4FB6E8952F804EB6A
:10C7A00050F804ABE4FB6E9A52F804EB50F804BB6B
:10C7B000E4FB6EAB52F804EB50F804CBE4FB6EBC28
:10C7C000A0F11C0052F8044B51F804EB4FF00003A9
:10C7D000E4FB6E3540F8043B51F804EBE4FB6E5685
:10C7E00040F8045B51F804EBE4FB6E6740F8046B1F
:10C7F00051F804EBE4FB6E7840F8047B51F804EB4D
:10C80000E4FB6E8940F8048B51F804EBE4FB6E9A6C
:10C8100040F8049B51F804EBE4FB6EAB40F804AB2A
:10C8200051F804EBE4FB6EBCA0E8001808BCBDE8BE
:10C83000F08F002310B51C465AB2914200DC10BDA7
:10C8400040F823400133F7E710B500231A465CB2E5
:10C85000A14203DCB2FA82F0400910BD50F8234037
:10C8600001332243F3E74A11012350F8220001F07B
:10C870001F0103FA01F108407047013910B549B2B0
:10C88000041D0A06CBB204D4013954F82120002A31
:10C89000F7D001335BB273B103F18042013A50F833
:10C8A0002220002022B9013B00EB431318B210BD37
:10C8B00052080130F6E71846F9E710B500235CB2DC
:10C8C000A24200DC10BD51F8234040F82340013360
:10C8D000F5E710B5013A52B2130601D5002010BD9C
:10C8E00050F8224051F822309C4205D802F1FF3224
:10C8F000F2D24FF0FF30F2E70120F0E700EB8101C8
:10C900000023884200D3704751F8042D43EA5203B4
:10C910000B60D307F5E770B59DF910401E4623461E
:10C920000546FFF79DFD30B9224629463046FFF700
:10C93000D0FF012807D02346324629462846BDE8C5
:10C940007040FFF7BDBD70BD70B59DF910401E462B
:10C9500023460546FFF7B4FD38B123463246294643
:10C960002846BDE87040FFF77BBD70BD2DE9F04F54
:10C97000B5B004AC9DF9F8501F4681462B462046C1
:10C98000FFF7CEFD24AB29463846CDE90234FFF748
:10C9900074FFC0EB851004B2002C2646B8BF04F12A
:10C9A0001F06634246F3471603F01F0304F01F08F7
:10C9B00014A858BFC3F100083146FFF73AFFB8F199
:10C9C000000F30B22DDD14AB002203EB8000C8F164
:10C9D000200C1346AB4219D32FB27B00019314AB4A
:10C9E00003EB870705F1FF3834AB012603EB88081A
:10C9F000002C54DA34AB03EB86062A4656F8C81CE2
:10CA00004846FFF75AFF35B0BDE8F08F57F823606E
:10CA100006FA08F10A4340F8042B013326FA0CF217
:10CA2000D8E714AB2A46394603EB8000FFF745FFF1
:10CA3000D2E70FFA82FE5AF8C83C53F82EB034AB56
:10CA400003EB8202013052F8803C0B44BBEB030342
:10CA500034BF012200229B4518BF11465CF8C82C48
:10CA600042F82E30019B42B29A42E2DB731A5E42D8
:10CA7000294614A85E41FFF741FF34AB03EB850361
:10CA8000294653F8802C58F8803C384643EAC27354
:10CA9000013C48F8803C24B2FFF730FFA8E734ABF4
:10CAA0000020C6F1010C014603EB860A03EB8C0C57
:10CAB000D8E730B51C4691B0054693F9003068467A
:10CAC000FFF72EFDD4F8AC3069462846984711B0E0
:10CAD00030BD13460A46FFF7ECBF2DE9F04793F946
:10CAE000006092B004468946104631461546984685
:10CAF000FFF7AAFE002840F091804246494602A86E
:10CB0000FFF7E7FF434602AA21460AA8FFF7D1FF35
:10CB100002A908464246FFF7DCFF43462A4649463B
:10CB20004846FFF7C6FF08F1040742462946284653
:10CB3000FFF7CFFF3B462A46214620460096FFF7E7
:10CB4000EAFE3B462A46294628460096FFF7E3FEC2
:10CB50003B462A46214628460096FFF7F5FE434607
:10CB60002A4621462046FFF7A4FF3B46224621469F
:10CB700028460096FFF7CFFE3B4600962A46214600
:10CB80002046FFF7C8FE2368DB074AD533463A46FE
:10CB900021462046FFF764FC314682462046FFF7D7
:10CBA000ADFE06F18043013B54F8230040EACA7011
:10CBB00044F82300424621462846FFF78AFF3B46B9
:10CBC0000AAA294628460096FFF7BEFE3B460AAA57
:10CBD000294628460096FFF7B7FE0AA908463B46B5
:10CBE0002A460096FFF7B0FE43460AAA2146204691
:10CBF000FFF75FFF02AA3B46104621460096FFF76B
:10CC0000A3FE324629462046FFF757FE49462846EE
:10CC1000FFF753FE02A94846FFF74FFE12B0BDE8EA
:10CC2000F08731462046FFF769FEC3E72DE9F04162
:10CC300015468AB0044688461C22002103A800F04D
:10CC400021FC2E1D95F9007003232A4641462046FB
:10CC50000293FFF73EFF334602AA21462046009783
:10CC6000FFF772FE2B46424621462046FFF721FF82
:10CC70000097334605F1840221462046FFF74BFE1C
:10CC80000AB0BDE8F0810000F0B5082289B00C467A
:10CC90000646FFF712FECB6A03930B6B04934B6BB4
:10CCA00005938B6B0693CB6B0793002708236A468B
:10CCB00069466846CDE901770097FFF7D1FB082365
:10CCC00005466A4631463046FFF7CAFB236B03939D
:10CCD000636B0493A36B0593E36B0544CDE90637BF
:10CCE0006A46082369466846FFF7BAFB08230544ED
:10CCF0006A4631463046FFF7B3FB236A0093636A06
:10CD00000193A36A0293A36B0693E36B0793054415
:10CD100008236A4631463046CDE904770397FFF78A
:10CD20009FFB636A0093A36AA26B0193E36A029379
:10CD30000492636BE26B0393CDE90523236A0793A7
:10CD4000054408236A4631463046FFF789FBE36A0B
:10CD50000093236B0193636B0293236A0693A36A88
:10CD60000793054408236A4631463046CDE90477E7
:10CD70000397FFF7A5FB236B0093636B0193A36BF2
:10CD80000293E36B0393636A0693E36A07932D1A96
:10CD900008236A4631463046CDE90477FFF790FB19
:10CDA000636B0093A36B0193E36B0293236A03937A
:10CDB000636A0493A36ACDE90537236B07932D1AA1
:10CDC00008236A4631463046FFF77AFBA36B00938F
:10CDD000E36BCDE90137636A0393A36A0493E36AC3
:10CDE000CDE90537636B07932D1A08236A46314650
:10CDF0003046FFF765FB2D1A0D4C0FD435B90822CC
:10CE000031462046FFF765FD01280FD00823224652
:10CE100031463046FFF754FB2D1AEFE70823224630
:10CE200031463046FFF71CFB2D18F7D409B0F0BD92
:10CE3000D4D80700F0B5154689B01C4607460E4603
:10CE40001A4629466846FFF744FE23466A46394695
:10CE50003846FFF72EFE23462A4669466846FFF706
:10CE600028FE23466A4631463046FFF722FE09B0C7
:10CE7000F0BD2DE9F0438BB01446129D15F9046BFB
:10CE800000961F46804689462B460246214602A848
:10CE9000FFF75AFD02A9129A0846FFF71AFE129BE5
:10CEA00002AA41464046FFF704FE129B02AA214611
:10CEB0002046FFF7FEFD2B464A4639463846009687
:10CEC000FFF742FD129A394602A8FFF702FE02A9B7
:10CED0002B46424608460096FFF736FD02A92B4630
:10CEE000224608460096FFF72FFD2B464246214674
:10CEF00020460096FFF728FD129B224649464846E9
:10CF0000FFF7D7FD2B4602AA414620460096FFF7C1
:10CF10001BFD129B224639463846FFF7CAFD2B46B9
:10CF20004A46394638460096FFF70EFD324602A9BA
:10CF30002046FFF7C2FC0BB0BDE8F0832DE9F047B7
:10CF40001F46B3F90230894613F11F0148BF03F1B0
:10CF50003E014D11D91D48BF03F10E01CC10944282
:10CF60004FFA85F828BF144641460646FFF761FC94
:10CF700022464946FFF768FAB7F90220E4009442D6
:10CF80001FD9A41A06EB85010022C4F120058E42A8
:10CF90000ED32437424631463846FFF79AFC012823
:10CFA0000FD043463A463046BDE8F047FFF788BA0F
:10CFB00051F8040D20FA04F313430B6000FA05F254
:10CFC000E5E7BDE8F08770B5036813F00106054694
:10CFD000144605D013460A460146FFF741FA0646B5
:10CFE00021462846FFF78AFC46B104F18042013A07
:10CFF00055F8223043F0004345F8223070BDF0B5BB
:10D000000F46A1B006461946384615461C46FFF79E
:10D010001BFC20B13046FFF70CFC21B0F0BD2246CE
:10D0200039466846FFF749FC294608A8FFF745FC42
:10D0300010A82146FFF7FDFB012318A81093FFF766
:10D04000F8FB224608A96846FFF743FC28B92246A8
:10D0500010A93046FFF731FCDFE7009BDA0709D45F
:10D0600021466846FFF74AFC2246294610A8FFF7EA
:10D07000AAFFE6E7089BDB0707D4214608A8FFF7CD
:10D080003DFC2246294618A8F1E7002823461CDD6E
:10D0900008AA69466846FFF713FA21466846FFF773
:10D0A0002DFC224618A910A8FFF713FC002805DA6A
:10D0B00010A923462A460846FFF7D2F910A92346AD
:10D0C00018AA0846FFF7FCF9CEE708A96A46084601
:10D0D000FFF7F6F9214608A8FFF710FC224610A931
:10D0E00018A8FFF7F6FB002805DA18A923462A46F8
:10D0F0000846FFF7B5F918A9234610AA0846FFF716
:10D10000DFF9BEE700487047D0D807002DE9F04F9F
:10D11000EDB01F46769E0490B6F9023096F90040B5
:10D1200013F11F0948BF03F13E0949F3471909F1FB
:10D13000FF3824AB002543F828506CAB03EB880381
:10D140004CA88A469346394696F9012043F8805CFC
:10D1500043F8605CFFF778F996F9012054A8B918F4
:10D16000FFF772F921464CA8FFF76EFB074600282F
:10D1700040F02D8154A8FFF767FB0290002840F093
:10D18000288106F124034A464CA918460393FFF769
:10D19000A0FB012840F01F814A4654A90398FFF7DD
:10D1A00098FB0128069040F016811CAD0CAF4B4651
:10D1B000039A54A92846FFF722FF029B47F828301C
:10D1C0005A46514638463346FFF7B8FE3946384688
:10D1D000039BCDF800902A46FFF7C8FB0DF5B87801
:10D1E000039BCDF800902A464CA914A8FFF7BEFB7C
:10D1F000224640460499FFF760FBA30008EB030AB0
:10D200000793049BA100591806F1440B5046FFF701
:10D2100054FB594634A8FFF750FBA3000BEB030166
:10D220003CA8FFF74AFB331D414634AA2846009428
:10D230000593FFF789FB534642463CA934A8009664
:10D24000FFF717FE2346321D29462846FFF7D7FE73
:10D250002A46514640463346FFF7ECFD029BCDE996
:10D26000083B049B49463846CDE90A38FFF705FBE1
:10D270004946804614A8FFF700FB8045B8BF8046AA
:10D280001FFA88F808F1FF3B0FFA8BFB5946384626
:10D29000FFF7E9FA5946071C14A818BF0127FFF742
:10D2A000E2FA002814BF022300231F430DF1200AD5
:10D2B00022465AF8277024A83946FFF7FEFA0DF1E6
:10D2C000B00BA300F9185846FFF7F7FA2146284695
:10D2D000FFF7AFFAA8F10208069B2B600FFA88F857
:10D2E0000DF1900AB8F1000F23DA2346059A29467A
:10D2F0002846FFF784FE33462A4659465046FFF734
:10D3000099FD4A4651460398FFF7E3FA012804D0F5
:10D310004B46039A5046FFF7D3F8013C64B24CAA3F
:10D3200023064AD5029BB3FA83F040096DB0BDE8ED
:10D33000F08F33462A46D6F8A47059465046B8476F
:10D3400041460CA8FFF78FFA4146071C14A818BFE6
:10D350000127FFF788FA002814BF022300231F4388
:10D3600008AB53F827701FB32246394634A8FFF79D
:10D37000A4FA079B3CA8F918FFF79FFA33462A4600
:10D380003CA934A8FFF756FD059B009434AA5146EA
:10D3900044A8FFF7D9FA5B4652463CA934A8009648
:10D3A000FFF767FD334644AA29462846FFF781FB6D
:10D3B00008F1FF380FFA88F894E752F824105AF869
:10D3C00024304B40029919430291013CA8E72846BA
:10D3D000ACE73846AAE70298A8E7000008B5074B73
:10D3E000044613B10021AFF30080054B1868836A2F
:10D3F00003B19847204600F055F800BF0000000038
:10D4000080D9070070B50D4D0D4C641BA41000268B
:10D41000A64209D10B4D0C4C00F046F8641BA41039
:10D420000026A64205D170BD55F8043B9847013649
:10D43000EEE755F8043B98470136F2E750580020D4
:10D4400050580020505800205458002030B5013961
:10D450000024A24201D1002005E0035D01340D5DEE
:10D46000AB42F6D0581B30BD0A44914200F1FF3365
:10D4700000D1704710B511F8014B03F8014F9142EC
:10D48000F9D110BD02440346934200D1704703F81E
:10D49000011BF9E7034613F8012B002AFBD1181AE8
:10D4A00001387047FEE700BFF8B500BFF8BC08BC04
:10D4B0009E467047F8B500BFF8BC08BC9E46704752
:10D4C000001000000400000001000000898A07002D
:10D4D000AD8A0700BD8A07002D8B0700CD8A0700A3
:10D4E000958A0700998A07009D8A070000100000AE
:10D4F0000400000001000000398C0700198C0700AF
:10D50000098C0700418E0700F58D0700DB8B0700B3
:10D51000DF8B0700E58B0700982F8A429144377113
:10D52000CFFBC0B5A5DBB5E95BC25639F111F159A6
:10D53000A4823F92D55E1CAB98AA07D8015B8312E8
:10D54000BE853124C37D0C55745DBE72FEB1DE8094
:10D55000A706DC9B74F19BC1C1699BE48647BEEFC3
:10D56000C69DC10FCCA10C246F2CE92DAA84744A4E
:10D57000DCA9B05CDA88F97652513E986DC631A8C4
:10D58000C82703B0C77F59BFF30BE0C64791A7D5A3
:10D590005163CA0667292914850AB72738211B2E2B
:10D5A000FC6D2C4D130D385354730A65BB0A6A7613
:10D5B0002EC9C281852C7292A1E8BFA24B661AA81F
:10D5C000708B4BC2A3516CC719E892D1240699D62F
:10D5D00085350EF470A06A1016C1A419086C371EA8
:10D5E0004C774827B5BCB034B30C1C394AAAD84E86
:10D5F0004FCA9C5BF36F2E68EE828F746F63A578C1
:10D600001478C8840802C78CFAFFBE90EB6C50A453
:10D61000F7A3F9BEF27871C6480028000020400048
:10D6200005D1070011121314AC749EBD7173BA6E4C
:10D63000A06C58B4475E40156596C7A17BBFA18515
:10D640005A03F48BEFB76C33C3EC69F642410C829A
:10D65000FB9ADDFAFE708BE26138B97029C860C7A9
:10D660005167B778ED7F64380000000000000000CB
:10D670000338FDD870470000C5A1070069A1070065
:10D68000B1A6070023A7070043A70700A5A007002E
:10D6900065A0070045A60700000000006FA707006F
:10D6A00069A7070049A707002000000078000000D4
:10D6B0000000000001000100000000000100000067
:10D6C0000000000002000500010000004200000010
:10D6D000000000000000000000000000000000004A
:10D6E00000000000010011000100FFFF0100000028
:10D6F00000000000020017000200FEFF64010000AD
:10D7000044D70700000000000000000000000000F7
:10D710000000000001000100000000000100000006
:10D7200000000000020005000100000022000000CF
:10D7300000000000000000000000000000000000E9
:10D7400000000000010011000400FCFF04000000C4
:10D7500000000000020011000400FCFF04000000B3
:10D7600000000000030021000400FCFF0400100082
:10D7700000000000040011000100FFFF0100000094
:10D7800000000000050011000200FEFF0400000080
:10D7900000000000060011000400FCFF040000006F
:10D7A00000000000070011000400FCFF040000005E
:10D7B00000000000080017000200FEFF2400000027
:10D7C00014D70700090010000100FFFF010000004E
:10D7D000F4D707000A0027000200FEFF4400030000
:10D7E000B4D60700000000000000000000000000A8
:10D7F0000000000000000000010017000400FCFF12
:10D8000068010000E4D60700020017000400FCFFD6
:10D81000AC01000028D80700000000000000000054
:10D8200000000000000000000100070000000000F0
:10D8300068010000E4D607000200010000000000BB
:10D8400001000000000000000300050001000000CE
:10D850004200000000000000000000000000000086
:10D86000000000000000000050EADA308883B89F12
:10D87000604F15F30000C98E4466755461726700ED
:10D880000338FDD870470C000C000000580201005E
:10D8900000070000B8D90700C0D907000800000041
:10D8A000C8D90700D8D9070008000000C0D9070070
:10D8B000C8D9070008000000B0D90700B8D9070090
:10D8C00008000000D8D90700E0D9070008000000D0
:10D8D00008200001FFFFFFFFFFFFFFFFFFFFFFFF2B
:10D8E0000000000000000000000000000100000037
:10D8F000FFFFFFFF512563FCC2CAB9F3849E17A73F
:10D90000ADFAE6BCFFFFFFFFFFFFFFFF00000000D6
:10D91000FFFFFFFF96C298D84539A1F4A033EB2D45
:10D92000817D0377F240A463E5E6BCF847422CE131
:10D93000F2D1176BF551BF376840B6CBCE5E316B75
:10D940005733CE2B169E0F7C4AEBE78E9B7F1AFE39
:10D95000E242E34F4B60D2273E3CCE3BF6B053CC85
:10D96000B0061D65BC86987655BDEBB3E7933AAA21
:10D97000D835C65ADBCA07002DCC070089CC070072
:08D98000F05700200000000038
:08D9880081AE0700F9AB0700B6
:0CD990000000000003000000D1BF0700F1
:10D99C00FC5E0020386F0020496F0020045F0020DF
:04D9AC00F400000083
:08D9B00009A9070000000000B6
:08D9B800F58B070000000000E0
:08D9C000B58D07000000000016
:10D9C80001C30700000000000DC4070000000000AC
:08D9D800118D070000000000A2
:08D9E00060A8FF7F01000000B8
:10D9E8000090D003000000000000000000000000CC
:10D9F800000000000000000000000000000000001F
:10DA080001000000BC570020CC570020FF00FFFF9A
:10DA18000100000000E00700000000000000000016
:10DA280000000000000000000000000000000000EE
:10DA380000000000000000000000000000000000DE
:10DA480000000000000000000000000000000000CE
:10DA580000000000000000000000000000000000BE
:10DA680000000000000000000000000000000000AE
:10DA78000000000000000000258207000182070066
:10DA8800000000000000000071AF07000010000057
:04DA98000000080082
:04000003700082B552
:00000001FF
