:020000022000DC
:1060000000000120B5620200DD620200DF620200D2
:10601000E1620200E3620200E562020000000000AB
:10602000000000000000000000000000E762020025
:10603000E962020000000000EB620200ED62020073
:106040009DB10200EF62020025BA0200EF62020079
:10605000EF620200EF6202002DB50200EF62020063
:10606000EF620200EF620200EF620200EF620200E4
:10607000EF620200EF620200EF620200EF620200D4
:10608000EF6202008D770200EF620200EF62020011
:106090002D780200EF620200B9260300EF620200D1
:1060A000EF620200EF620200EF620200EF620200A4
:1060B000EF620200EF62020000000000000000003A
:1060C000EF620200EF620200EF620200EF62020084
:1060D000EF620200EF620200EF62020000000000C7
:1060E00000000000000000000000000000000000B0
:1060F00000000000000000000000000000000000A0
:10610000000000000000000000000000000000008F
:10611000000000000000000000000000000000007F
:10612000000000000000000000000000000000006F
:10613000000000000000000000000000000000005F
:10614000000000000000000000000000000000004F
:10615000000000000000000000000000000000003F
:10616000000000000000000000000000000000002F
:10617000000000000000000000000000000000001F
:10618000000000000000000000000000000000000F
:1061900000000000000000000000000000000000FF
:1061A00000000000000000000000000000000000EF
:1061B00000000000000000000000000000000000DF
:1061C00000000000000000000000000000000000CF
:1061D00000000000000000000000000000000000BF
:1061E00000000000000000000000000000000000AF
:1061F000000000000000000000000000000000009F
:1062000010B5054C237833B9044B13B10448AFF3F0
:1062100000800123237010BDD82200200000000060
:10622000D850030008B5034B1BB103490348AFF333
:10623000008008BD00000000DC220020D8500300D0
:10624000154B002B08BF134B9D46A3F5803A002148
:106250008B460F461348144A121A0CF0FFFB0F4BE3
:10626000002B00D098470E4B002B00D09847002001
:10627000002104000D000D48002802D00C48AFF3A7
:1062800000800CF0ABFB2000290006F0FBFC0CF0BA
:1062900091FB00BF0000080000000120000000008A
:1062A00000000000D8220020003400200000000080
:1062B000000000000649074A074B9B1A03DD043B18
:1062C000C858D050FBDC04F0B3FBFFF7B9FF000067
:1062D0003852030018220020D8220020FEE7FEE7F3
:1062E000FEE7FEE7FEE7FEE7FEE7FEE7FEE7FEE786
:1062F000F0B595B0002415460F4608461E4604F03A
:1063000055FA384623460895082205A91A9D09968C
:106310000D950A948DF82C400C9404F0ABFA9DF87E
:1063200014308DF81140DDE9061003F00302012A54
:10633000CDE9020127D0022A04D0384604F03AFA07
:1063400015B0F0BDBDF81650C3F3C2038DF8103080
:10635000AD090826082D2C4628BF082433462246BE
:106360000EA9384604F086FA2D1B214608AB02AA76
:106370000EA8264400F0F8FF002DEBD1384604F0BB
:1063800019FA15B0F0BDBDF81460059DC6F383166B
:10639000C3F3C204B2000EA9384608238DF810409A
:1063A000C5F3952504F066FA08AB324628460EA9D7
:1063B000009302AB00F062FF384604F0FBF915B021
:1063C000F0BD00BF014B01221A7070473823002036
:1063D000704700BF00B583B0044B0093044A4023CC
:1063E000FFF786FF03B05DF804FB00BFF563020012
:1063F000F822002038B50E480E4D03780E4CEB5CA9
:106400000025D2B2257053B1043005F093FF58B97E
:106410000A4B1B7813B12378002BFCD038BD0C300D
:1064200005F04AFD0028F3D001F068F9F0E700BF5D
:1064300018220020FC33002038230020F422002002
:1064400030B51448144A0378D35C89B0BBB104302A
:1064500005F008FF114D0FCD6C460FC495E80F00F5
:10646000062584E80F00002269460A48009504F0DA
:106470002DFE40B90A4B00221A7009B030BD0C3015
:1064800005F0B4FCE6E701F039F9054B00221A707B
:1064900009B030BD18220020FC3300209C2D0300E1
:1064A000F422002030B50E4D0FCD89B06C460FC4DC
:1064B00095E80F00062584E80F000A4A0A4800956F
:1064C000694604F003FE20B9084B01221A7009B096
:1064D00030BD01F013F9054B01221A7009B030BD2F
:1064E0009C2D0300C563020018220020F422002026
:1064F00008B5FFF7D7FF0421034800F02FFE034B38
:1065000001225A7108BD00BF205203002C22002036
:1065100038B50C4B0C48002400250022FF21C3E9AC
:106520000045C3F81824996083F82024C3F8142484
:1065300004F0EEF8044610B9044804F011FA2046BD
:1065400038BD00BF102400205C510300DC2D030087
:10655000A9B1124B12495B1ADB081AD030B4114CA6
:106560002288824217D0002203E034F8225085426C
:106570000AD001329342F8D1002030BC7047084A5B
:1065800002EBC0021068704701EBC202106830BC19
:106590007047184670470A46F8E700BF20520300CC
:1065A00070510300D4220020094B013903EBC000D5
:1065B00003290BD8DFE801F0020806040220704727
:1065C0004079704700797047042070470020704779
:1065D000705103002DE9F047974CD4E900239A420B
:1065E00084B063D00023C4F81834BFF34F8FD4E9CC
:1065F000013503EA0501CA1C04EB820614F82220C7
:10660000500719D52768327802F00302012A43D0D7
:10661000022A03D17288023303EB921305EA0301C5
:10662000D4F81804CA1C04EB820628B99F4239D951
:1066300014F822205207E6D404EB81015A1CC968E1
:1066400001912A4004EB820201F00301D268029218
:10665000022903F102062DD0012900F09580D4F81B
:1066600010543DB12B6828469B689847EB681D681D
:10667000002DF7D17148724B7249C01AC00800044E
:1066800040F0020000F0E4F8D4E90030C01A18BF6E
:10669000012004B0BDE8F08732880233C2F38312D0
:1066A0001344BBE7676004B0BDE8F087002004B086
:1066B000BDE8F087BDF8063063484FEA9319B9F199
:1066C000500FC84628BF4FF0500868F38F1308F1E9
:1066D0000801ADF8063004F01DF807460028BED0CA
:1066E00025EA060A0AF1010A04F060F84FEA8A0A6C
:1066F0000023082201A9384604F088F8D0457ED945
:10670000BAF1000F00F08E8005EA06010331A8EB14
:106710000A0504EB8101082352463846EDB204F025
:1067200075F82A460AF108034849384604F06EF81D
:1067300009F1030906EB9909D4F81834002B6DD13F
:10674000D4F8105465B1EB685A7928463946002AC6
:1067500060D02B681B689847EB681D68002DF2D14C
:10676000384604F027F800230DF103008DF80330BC
:1067700001F048FBD4F818340BB9C4F804909DF824
:10678000030001F065FB7FE7BDF804202E48C2F34B
:106790008313062B28BF062363F389120233990063
:1067A000ADF8042003F0B6FF074600283FF457AFCA
:1067B00003F0FCFF0023082201A9384604F026F864
:1067C000BDF8043013F4707F33D04FF0000805EAB1
:1067D00006014FEA88030331083304EB81010422E8
:1067E000384604F013F8BDF8043008F10108C3F38B
:1067F000831306F1010943454E46E8D89CE705EAB4
:106800000601033104EB810142460823384603F0B8
:10681000FDFF8DE71D68002D95D1A1E7384603F0F7
:10682000C9FF31E7424608230849384603F0EEFF26
:106830007EE7B14680E700BF102400209851030096
:1068400070510300E82D03005C5103001C2400205C
:106850002DE9F04F674C87B0002380460DF10B0007
:106860008DF80B300191A56801F0CCFAD4E9012331
:1068700026681A440132921B012A00F2B98004F200
:106880001C4704F214490121384602F0F1FE5A482F
:1068900002F012FF484602F00FFFD4E9013E03EA7E
:1068A0000E00C21C04EB820114F8222012F0040234
:1068B00000F09B8003F1020C91F800B00BF0030B89
:1068C000BBF1010FE24600F08B80BBF1020F00F13B
:1068D000030B75D004EB8B01002AEDD104EB800093
:1068E0000133C268039203EA0E0304EB830302F050
:1068F0000302012AD9685BD0022A56D1BDF80E30B6
:106900009B0903334FEA114B0AEB930A484602F006
:10691000DFFE5946002846D03846C4F804A002F0ED
:10692000A7FED4E90113226819440131891A01290B
:10693000A9D913400333023205219DF80B0044F816
:106940002310226001F084FA00212C4802F056FE48
:1069500080F31000731C2B4004EB830300043540CC
:10696000033540EA1840D86014F8253068F3C503B1
:1069700004F82530019B54F8252063F39F2222F46C
:10698000717323F0030343F0010344F8252024F836
:10699000253094F820341BB1FFF71CFE0028FBD1F2
:1069A00007B0BDE8F08F3846B9E74FF0000BADE710
:1069B000BDF80C30C3F383134FEA114B9A44A5E79B
:1069C0004B880CEB93130EEA0300C11C03F1020C7D
:1069D00014F82120E24604EB810102F004027BE777
:1069E0000B88C3F383136344EDE703F1020A75E7F1
:1069F00032469EE710240020282800202C28002062
:106A00002DE9F04F6B4C87B0002380460DF10B0051
:106A1000CDE900128DF80B30A56801F0F3F9D4E947
:106A2000012326681A440132921B022A00F2BF8019
:106A300004F21C4704F214490121384602F018FE02
:106A40005D4802F039FE484602F036FED4E9013EC8
:106A500003EA0E00C21C04EB820114F8222012F09B
:106A6000040200F0A18003F1020C91F800B00BF0D9
:106A7000030BBBF1010FE24600F09180BBF1020F66
:106A800000F1030B7BD004EB8B01002AEDD104EB6A
:106A900080000133C268039203EA0E0304EB830310
:106AA00002F00302012AD96861D0022A5CD1BDF844
:106AB0000E309B0903334FEA114B0AEB930A484609
:106AC00002F006FE594600284CD03846C4F804A00F
:106AD00002F0CEFDD4E90113226819440131891A6C
:106AE0000229A9D913400333033245219DF80B0035
:106AF00044F82310226001F0ABF9B31C2B4004EBE7
:106B00008303019A2D48DA60002102F077FD80F3BB
:106B10001000731C2B4004EB830300043540033545
:106B200040EA1840D86014F8253068F3C50304F82B
:106B30002530009B54F8252063F39F2222F47173C3
:106B400023F0030343F0410344F8252024F82530C3
:106B500094F820341BB1FFF73DFD0028FBD107B0AE
:106B6000BDE8F08F3846B3E74FF0000BA7E7BDF85C
:106B70000C30C3F383134FEA114B9A449FE74B88C1
:106B80000CEB93130EEA0300C11C03F1020C14F882
:106B90002120E24604EB810102F0040275E70B8834
:106BA000C3F383136344EDE703F1020A6FE7324650
:106BB00098E700BF10240020282800202C2800205F
:106BC0002DE9F04F6F4C89B0002680460DF113007F
:106BD000CDE9011203938DF81360A56801F012F955
:106BE000D4E9012326681A440132921B032A00F2D9
:106BF000C68004F21C4704F214490121384602F011
:106C000037FD614802F058FD484602F055FDD4E9D1
:106C1000013E03EA0E00C21C04EB820114F822209C
:106C200012F0040200F0A88003F1020C91F800B009
:106C30000BF0030BBBF1010FE24600F09880BBF1B3
:106C4000020F00F1030B00F0828004EB8B01002A9D
:106C5000ECD104EB80000133C268059203EA0E0315
:106C600004EB830302F00302012AD96867D0022AE9
:106C700062D1BDF816309B0903334FEA114B0AEB82
:106C8000930A484602F024FD5946002852D038465F
:106C9000C4F804A002F0ECFCD4E901132268194402
:106CA0000131891A0329A8D91340033304328521FD
:106CB0009DF8130044F82310226001F0C9F8B21CBB
:106CC0002A40F31C2B4004EB820204EB8303029F57
:106CD000D7600021039A2D48DA6002F08FFC80F320
:106CE0001000731C2B4004EB830300043540033574
:106CF00040EA1840D86014F8253068F3C50304F85A
:106D00002530019B54F8252063F39F2222F47173F0
:106D100023F0030343F0810344F8252024F82530B1
:106D200094F820341BB1FFF755FC0028FBD109B0C3
:106D3000BDE8F08F3846ADE74FF0000BA1E7BDF896
:106D40001430C3F383134FEA114B9A4499E74B88ED
:106D50000CEB93130EEA0300C11C03F1020C14F8B0
:106D60002120E24604EB810102F004026FE70B8868
:106D7000C3F383136344EDE703F1020A69E7324684
:106D800092E700BF10240020282800202C28002093
:106D90002DE9F04F724C89B0002680460DF11300AA
:106DA000CDE9011203938DF81360A56801F02AF86C
:106DB000D4E9012326681A440132921B042A00F206
:106DC000CC8004F21C4704F214490121384602F039
:106DD0004FFC644802F070FC484602F06DFCD4E9B8
:106DE000013E03EA0E00C21C04EB820114F82220CB
:106DF00012F0040200F0AE8003F1020C91F800B032
:106E00000BF0030BBBF1010FE24600F09E80BBF1DB
:106E1000020F00F1030B00F0888004EB8B01002AC5
:106E2000ECD104EB80000133C268059203EA0E0343
:106E300004EB830302F00302012AD9686DD0022A11
:106E400068D1BDF816309B0903334FEA114B0AEBAA
:106E5000930A484602F03CFC5946002858D0384670
:106E6000C4F804A002F004FCD4E901132268194418
:106E70000131891A0429A8D9134003330532C521E9
:106E80009DF8130044F82310226000F0E1FFB01CCD
:106E90002840F21C2A4004EB8000331D029FC7608B
:106EA0002B4004EB820204EB8303039FD760002195
:106EB000129A2D48DA6002F0A1FB80F31000731CD7
:106EC0002B4004EB830300043540033540EA1840AF
:106ED000D86014F8253068F3C50304F82530019B09
:106EE00054F8252063F39F2222F4717323F00303E7
:106EF00043F0C10344F8252024F8253094F82034C9
:106F00001BB1FFF767FB0028FBD109B0BDE8F08F8C
:106F10003846A7E74FF0000B9BE7BDF81430C3F3EA
:106F200083134FEA114B9A4493E74B880CEB93136E
:106F30000EEA0300C11C03F1020C14F82120E24602
:106F400004EB810102F0040269E70B88C3F38313A9
:106F50006344EDE703F1020A63E732468CE700BFC2
:106F600010240020282800202C2800202DE9F04F94
:106F7000774C89B0002680460DF11300CDE901124F
:106F800003938DF81360A56800F03CFFD4E901235A
:106F900026681A440132921B052A00F2D68004F2B8
:106FA0001C4704F214490121384602F061FB69488C
:106FB00002F082FB484602F07FFBD4E9013E03EA7F
:106FC0000E00C21C04EB820114F8222012F004020D
:106FD00000F0B88003F1020C91F800B00BF0030B45
:106FE000BBF1010FE24600F0A880BBF1020F00F1F7
:106FF000030B00F0928004EB8B01002AECD104EB30
:1070000080000133C268059203EA0E0304EB830398
:1070100002F00302012AD96877D0022A72D1BDF8A2
:1070200016309B0903334FEA114B0AEB930A48468B
:1070300002F04EFB5946002862D03846C4F804A03E
:1070400002F016FBD4E90113226819440131891AB0
:107050000529A8D913400333063240F205119DF8E3
:10706000130044F82310F71C226000F0F1FEB11C5D
:1070700029402F40321D731D2B402A4004EB810113
:1070800004EB870704EB820204EB830C0298039B5A
:10709000C860FB60129BD3600021139B2E48CCF884
:1070A0000C3002F0ABFA80F31000731C2B4004EBA1
:1070B000830300043540033540EA1840D86014F8D3
:1070C000253068F3C50304F82530019B54F82520CA
:1070D00063F39F2222F4717323F0030343F480735C
:1070E00043F0010344F8252024F8253094F8203497
:1070F0001BB1FFF76FFA0028FBD109B0BDE8F08F94
:1071000038469DE74FF0000B91E7BDF81430C3F30C
:1071100083134FEA114B9A4489E74B880CEB931386
:107120000EEA0300C11C03F1020C14F82120E24610
:1071300004EB810102F004025FE70B88C3F38313C1
:107140006344EDE703F1020A59E7324682E700BFE4
:1071500010240020282800202C280020F0B41B4EEA
:10716000D6F810340746002B2DD0DC682579002195
:107170008D42084617D0234603E0DB681A798A421D
:1071800011D01B68002BF8D1FB681871D6F81034A9
:107190009BB1DA68FB6812681A60D6F81034DB68B5
:1071A0001F60F0BC7047092901F1010301D01946A5
:1071B000DEE74FF0FF30F0BC7047C6F81074FA6895
:1071C0001360F0BC70471846DEE700BF10240020B3
:1071D00038B5094BD3F81044012583F820544CB13D
:1071E000E3685D71236820465B689847E3681C6824
:1071F000002CF5D138BD00BF1024002030B5C38865
:1072000083B004460D4613BB217A05291DD0637A4D
:10721000A08873B9124B53F821400021FFF798F969
:10722000104903462246284603B0BDE8304002F02C
:10723000C7BAFFF7B9F90C4B0C4953F82020284680
:1072400002F0BEFA217AA088E4E703B030BD084A14
:1072500000920849084A284602F0B2FAD4E700BF73
:10726000702E0300642E0300002E030080440300F0
:107270005C2E0300442E03003C2E03002DE9F04356
:1072800085B01D460C9C002381460E46174694F897
:107290000C80237321462846FFF7B0FF062F09D83C
:1072A000DFE807F0042E343B444F1F0049462046D8
:1072B00002F086FA2B7A052B05D06B7A5BB9274949
:1072C000204602F07DFA204602F06EFA84F80C8027
:1072D00005B0BDE8F083224A2249204602F070FA48
:1072E000EDE7D6E90413F2680393B3680291CDE9A0
:1072F00000324946D6E90023204602F061FAD9E778
:1073000032684946204602F05BFAD3E74946D6E99F
:107310000023204602F054FACCE7B36800934946B4
:10732000D6E90023204602F04BFAC3E7D6E9023241
:10733000019200934946D6E90023204602F040FA24
:10734000B8E7D6E90321B3680291CDE90032494696
:10735000D6E90023204602F033FAABE7382E0300CB
:107360005C2E030080440300082900D970472DE9F2
:10737000F04F1D4683B000241B7B2C7307460E463E
:107380001046294691460193DFF8C8A0DFF8C8806F
:10739000FFF734FF05E03A5D013402F011FA082CE2
:1073A00009D0A64241462846F5D85146013402F09C
:1073B00007FA082CF5D12249DFF8A0A0214CDFF80C
:1073C000A080284602F0FCF94FF0000B0EE012F806
:1073D000081011F0970F08BF2E22214628460BF106
:1073E000010B02F0EDF9BBF1080F10D05E4505D995
:1073F00017F80B207E2AEAD92E22EEE751462846BE
:107400000BF1010B02F0DCF9BBF1080FEED199F89A
:107410000830052B02D099F809305BB90A49284693
:1074200002F0CEF9284602F0BFF9019B2B7303B09E
:10743000BDE8F08F054A0649284602F0C1F9EDE79C
:10744000302E0300342E0300382E03005C2E030080
:10745000804403002C2E0300242E03006C2E030016
:10746000D14F03002DE9F04F424B93F800E089B073
:10747000BEF1000F6AD000263F4F34460125B246C8
:1074800005E00AF1010A5FFA8AF4A6455ED93B4B92
:1074900039681E687A6816F83400A0F1200BC0F134
:1074A000200305FA0BFB25FA03F34BEA030305FA65
:1074B00000FC02EA030901EA0C08009358EA090BF0
:1074C00006EBC4030593DCD0009B21EA0C0122EA01
:1074D0000303C7E9001304F01FF8294B16F834C062
:1074E000C2B2D3E900640023CDE90023009AACF1D5
:1074F00020018A400392009ACCF1200322FA03F380
:10750000039A1A43CCF1200305FA01F125FA03F39B
:107510000B4305FA0CF1039201EA06020692009A67
:10752000234002FA0CF202920793DDE90634DDE90A
:107530000212944208BF8B420BD00E4B0AF1010A93
:1075400093F800E05FFA8AF4A645A0D809B0BDE838
:10755000F08F059A5368002BEFD05178A1F101010B
:10756000B1FA81F14909091AB1FA81F14909604674
:107570009847E2E7CC2800200029002008290020B5
:10758000F82800202DE9F8438046214800F000FC4F
:10759000D0B9204D0127D5E90023A8F12004C8F176
:1075A000200607FA04F427FA06F607FA08F9344326
:1075B00002EA090003EA0401014307D022EA0902B2
:1075C00023EA0404C5E90024BDE8F883404603F03B
:1075D000A3FF114B1E68A8B9586826EA090620EADD
:1075E0000400D5E900211E600C4E586042EA0902F1
:1075F0000C432A6031686C6005480022BDE8F843FE
:1076000000F070BB586849EA06062043E9E700BF6E
:10761000D428002000290020F8280020D0280020AD
:10762000042A3BD92DE9F04182B00E4605461446A6
:1076300003F030FE68B31E491E4A1F4B0D601F4801
:107640001F491C60167000230022741EC0E900232D
:10765000C1E90023E4B21EB305EBC4044FF00008F7
:107660000327184E02E0A5421AD01C46A3782078C2
:107670008DF80530324601A98DF806808DF804702A
:1076800003F012FEA4F108030028ECD002B0BDE81C
:10769000F08103F0B5FD0028CDD0F7E70720704753
:1076A000094A0A48002100F00BFB02B0BDE8F08156
:1076B00008290020CC280020D0280020F82800200D
:1076C000002900208575020065740200DC2E03008D
:1076D00070B5084D2B785BB1074E0024336801214B
:1076E00013F8340003F0B8FE2B780134A342F5D828
:1076F000002070BDCC2800200829002000B585B0EE
:1077000000230390194601AA44F20100CDE9013398
:1077100000F004F805B05DF804FB00BF10B572B6C8
:10772000FFF756FDFEF756FF0028FBD1104B114C1A
:107730001149E41AE408240444F00100FFF788F832
:107740000E4B1B68DB0700D500BE44F002000C495D
:10775000FFF77EF8BFF34F8F0A490B4BCA6802F45C
:10776000E0621343CB60BFF34F8F00BFFDE700BF64
:107770007051030098510300E02E0300F0ED00E08B
:10778000EC2E030000ED00E00400FA05F8B52049F6
:10779000204B0024C1F84041C1F84441C1F84841A0
:1077A000C1F84C41C1F80041C1F804411B6833B332
:1077B0001948D1F8045501681A686D1A25F07F45FB
:1077C000AA4227460DD8197CDE69AD1A144419B1B6
:1077D0001F74D3E9052090471EB133461A68AA42A8
:1077E000F1D90E490E4A0B7812789A4208D00D4909
:1077F0000D4A41F823404FF48013C2F80031F8BD20
:10780000531CDBB2022B08BF00230B70EFE700BF55
:10781000001001402C2A0020282A0020252A0020C0
:10782000242A00201C2A002000E100E02DE9F04F6E
:10783000B34AB44913780978B34E994285B0356894
:1078400000F08D810133DBB2022B08BF0023AF496A
:107850001370AF4AD1F800C052F823200CEB02039A
:1078600023F07F430B60002D00F0C6812B689A4205
:10787000C0F0C48100273846BE4603E00B6893423F
:1078800000F27081EC68C5F800E0D21A1844E9698A
:107890003CB10CEB000323F07F43C5E90134EF61F9
:1078A0002F460D460029E9D1316000254FF0010A2D
:1078B000984B9949DFF8749243F0010301934FF01C
:1078C0000008002F33D0D7E901BE3C46FF698F4B3B
:1078D00092481A68ABEB020323F07F43834200F225
:1078E00004817344236000203268E061C4E9010030
:1078F00001202074002A00F0F6801068984208D316
:10790000E2E0DEF800C0DC4580F0E38072465B46D2
:107910006046D2F81CE0A3EB000BBEF1000FF0D1E3
:10792000C4F800B0C4F81CE0D461002FCBD191F8AA
:1079300001E00878864519D084460CEB4C0C8B7816
:1079400001EBCC0C421CD0B283429CF8043008708E
:1079500004BF00200870022BDCF8084000F0838090
:10796000032B75D0012B5AD07045E5D13668B8F19C
:10797000000F01D1AE422CD086B3644A684B146824
:10798000D3F80475DFF8A081366898F800203D1B15
:1079900025F07F450335002A00F0EB80AE422CBF76
:1079A000A41964195E4A24F07F44C2F84045D2F815
:1079B0000435DB1BE41B23F07F4324F07F440333B7
:1079C000A34200F2EF80002389F8003005B0BDE843
:1079D000F08FBAF1000FF6D0002ECED1504D514AA3
:1079E0004C4C4FF400314FF480330127C2F8801023
:1079F0003C43C5F848334FF43C60C5F808336F602A
:107A0000A047424BAF604FF43C601E60A047464B1E
:107A10001E70002389F8003005B0BDE8F08F237C8C
:107A2000002BA1D1DCF80CB0C4F804B0DCF810E0F5
:107A3000C4F808E0DCF81420E26099F80020DCF8D3
:107A40001800A061002A3FF442AF63609B463EE706
:107A50003368002B3FF46EAF00221A74DB69002BF1
:107A6000FBD1336063E7336853B19C4260D09B46DF
:107A700002E0944207D09346DBF81C20002AF8D19C
:107A80000023237470E7A34554D0E069D4F800E0E4
:107A9000CBF81C0000285CD09C460268724402604F
:107AA000634518BF4FF001080023087891F801E002
:107AB000237459E7326800230120C4E90033A3602E
:107AC000E36120747AB110683460C31A1360E26114
:107AD000F7E66044C31ACEF80030C4F800B0C4F82A
:107AE0001CE0D46121E73460EBE6A2EB0B0222F04C
:107AF0007F427245DED2AEEB02032360F3E600BFA5
:107B0000242A0020252A00202C2A0020282A0020B0
:107B10001C2A0020002F03000C290020FEFF7F00FC
:107B20000010014000E100E0192A0020182A00207E
:107B3000A3462246D3F81CC0C6F800C0BCF1000F13
:107B400045D0D069D2F800E0CBF81C000028A4D1C1
:107B5000A6E70023087891F801E0237404E70027E2
:107B6000BA46A5E631600D469B1A0B604FF0010A3C
:107B70009EE62449244A4FF48030C3F844034FF072
:107B8000010AC3F804034FF40030C1F8800142F049
:107B900001020860C3F800A04FF43C60904788F8E9
:107BA00000A0FBE6184BD2F80415C2F8401543F0CC
:107BB00001034FF43C609847124B4FF40032C3F876
:107BC0000021002389F8003005B0BDE8F08FCDE931
:107BD00002320E4BDFF83CE001209860019B89F8EF
:107BE0000000CEF800C04FF43C609847D6F800C0C3
:107BF0000749DDE90232A4E72F4656E62946002769
:107C0000B2E700BF00E100E0002F030000100140D8
:107C10000C290020282A00202DE9F8431F4D204E72
:107C2000204FDFF898804FF480334FF400324FF04C
:107C300001090024C6F8802047EA0907C5F848333F
:107C40004FF43C60C5F80833C5F80490B847C5F850
:107C500008904FF43C60C8F80040B847124A134BF4
:107C600013491C601470134B134A0C700B211470D1
:107C70001C8099704FF48012C023C6F8802186F8CA
:107C800014333260C5F8084586F81133D5F8043549
:107C9000C8F800302046BDE8F88300BF001001405E
:107CA00000E100E0002F0300192A00202C2A002008
:107CB000242A00200C290020252A0020282A002020
:107CC000074B9B783BB142B138B10368187C10B9BF
:107CD00059745A617047082070470720704700BFE9
:107CE0000C2900202DE9F047264CA37882B0002B08
:107CF0003CD000283AD004293CD94369002B35D028
:107D0000437C0026012B81460DF107000CBF8846FD
:107D1000B04617468A468DF8076000F073F863781E
:107D2000A17822789DF807005D1CEDB2A94208BF3A
:107D30003546AA4222D003EB430304EBC3030121DF
:107D4000114AC3F808901971D2F804256570C3E987
:107D5000032AC3E9058700F07BF80C4B4FF480122F
:107D60003046C3F8002102B0BDE8F087082002B019
:107D7000BDE8F087072002B0BDE8F08700F068F8A2
:107D80000420F0E70C2900200010014000E100E091
:107D9000F0B51A4CA37883B04BB340B3436933B307
:107DA0000026067405460DF107008DF8076000F007
:107DB00029F86378A77821789DF807005A1CD2B279
:107DC000974208BF3246914214D003EB430304EBC1
:107DD000C30302219D601971627000F039F8084BED
:107DE0004FF480123046C3F8002103B0F0BD0820E4
:107DF00003B0F0BD00F02CF80420F6E70C290020B9
:107E000000E100E070B4EFF3108472B60D4B9A6895
:107E1000AAB90D490D4E01259D60D1F8805035401D
:107E20001D60C1F88060D1F884505D604FF0FF3371
:107E3000C1F88430027004B962B670BC7047012387
:107E40000370F8E7F033002000E100E0FC06FFBD1E
:107E5000094B9A687AB170B910B4EFF3108172B619
:107E6000064A1C6814605C685460986001B962B688
:107E70005DF8044B70477047F033002000E100E0EC
:107E80002DE9F04102230B80846801342DD000F5E8
:107E9000805508305AB3304F9E464FF6FF764FF06C
:107EA000010C4388DC1C00EB8404A54247D3848882
:107EB000B4424BD00488002C48D08468D7F80080A6
:107EC000444503D93C60B1F800E043887344033370
:107ED0001FFA83FEA1F800E04488033400EB84001D
:107EE000854202D904680134DBD1BDE8F0811A4C27
:107EF0009E464FF6FF764388DA1C00EB82029542DD
:107F00001FD38288B24209D002883AB182682768BA
:107F1000974203D22260B1F800E0438873440333F0
:107F20001FFA83FEA1F800E04288033200EB8200D2
:107F30008542DAD903680133DDD1BDE8F081012340
:107F400013704FF480630B80BDE8F08182F800C0AD
:107F5000B1F800E04388B9E7682A0020F0B443682C
:107F60001BB1374AD468A34246D20023354F0B8059
:107F70007A684FF0010C02F580544FF6FF76083214
:107F800094420ED8BCF1020FA1F800C007F114070B
:107F900054D07A6802F58054083294424FF0020CB3
:107FA000F0D913680133EDD05388033302EB830318
:107FB0009C42E7D39588B5420AD0158845B19568AB
:107FC00003689D4211D05388033302EB8302D7E745
:107FD0009C42D7D91A6801321A46D3D05D8803353E
:107FE00003EB85039C42E5D2CCE7174B42601B892B
:107FF00003810120F0BC704712699342B5D813F099
:108000000305B2D1104A048912899442ADD10468A3
:108010009A689442A9D10B484268934203D902F569
:108020008052934207D38269934207D902F5805266
:10803000934203D201250D800120DBE70020D9E720
:10804000C0220020702A0020542A00202DE9F04F81
:10805000A04F89B005464FF6FF793C68002C00F030
:10806000BA802278531E052B00F23F83DFE803F02D
:108070003A47471E1E03002D40F0B480DFF87CC253
:108080009CF80C209CF80030002A00F04F81013B46
:108090008CF80C50062B00F22883DFE813F0510413
:1080A000F102F401CE012603DD02CD02002D40F0E5
:1080B00099802379012B00F05D81002B00F0438132
:1080C00003AE022B0395C6E90255356100D00F259A
:1080D00004952378023B042B40D8DFE803F0642C9E
:1080E00070596000002D40F09B802379032B00F233
:1080F000D080DFE813F0E3000701D800AC00B4F84B
:1081000014A0A17D002D75D14FEA8A08724E08EBAC
:108110000A0306EB83031D895B6803EB85050629CB
:1081200000F23784DFE811F03E024D0218022B0204
:10813000DA01FE01C40102238DF80C302389ADF869
:108140001830A388ADF81A30E3680593A37DA3F136
:108150000603B3FA83F35B098DF81C305F4C04F11E
:10816000100554F8043B304603B19847A542F8D1B6
:108170005B495C4800253D6001F0BAF901215A488D
:1081800001F082FA00287FF468AF09B0BDE8F08FF3
:1081900004238DF80C30E388ADF81830DEE70523B2
:1081A0008DF80C30DAE701238DF80C302389ADF817
:1081B0001830A388ADF81A30E3680593CEE703239F
:1081C0008DF80C30E388ADF818302389ADF81A30FB
:1081D000E3680593C2E74249424801F059F9044671
:1081E00038603EE703AE0023B3600393C6E9033370
:1081F00001256DE70229E2881CD8374E4FEA8A082C
:1082000008EB0A0106EB810103AE4B89033B9B1A85
:1082100000224B81B2600392C6E90322012557E791
:1082200003AE324A002353600393C6E9023333613D
:1082300001254DE74FEA8A08274E08EB0A0106EBB5
:108240008101D31C0A8913440B81E288D8E7284DA9
:10825000284A29682848204E4FF0000884F80480F6
:108260000823CDF8008001F02FFF244B2C685B8899
:10827000A98803EB830306EB830206F82380536887
:108280002B60022354601181AB8000283FF47DAF46
:108290003C68164A03AE002353600393C6E90233D9
:1082A00033610E2514E7124A134811680023237125
:1082B00002249480012201F0A5FFE6E70C4B104A4E
:1082C00019680D480123237100230093082301F04E
:1082D000FBFEDAE76C2A0020702A00203C2A0020EE
:1082E000642A0020242B0020342B00204C2A00205C
:1082F000382B00200C2F0300C0220020542A00201D
:10830000142F0300B74E3378022B00F02983337DFE
:10831000022B00F03583B44A03AE0123137000230F
:1083200053600393C6E902333361D1E6072B00F2B1
:108330009F82DFE813F024029D029D020702F401F0
:1083400081018101E10102232371CDE9045503AECE
:10835000E368039330460DF10A01FFF7FFFD0028A3
:1083600040F050810A250023C6E90033C6E90233F4
:108370003361ADE69C4B1B78002B00F0D3829B4809
:10838000B0F80480B8F1010F0FD8964E08EB8802C0
:1083900006EB82021378ABB108F1010399B201290F
:1083A0009846838002F11402F4D903AE082200211A
:1083B0008E480AF053FB0023B3600393C6E90333EE
:1083C0003C6885E65368016803F5805C03F1080E9C
:1083D000002900F083824B88033301EB83018C4535
:1083E00040F25E820B68013300F05A824B880333FF
:1083F00001EB83039C45C0F05382B1F804A0CA4549
:1084000000F04C82B1F800B0BBF1000F00F04682E2
:10841000E38801605345DBD100230093744A75481B
:10842000042301F051FE002840F0AC8208EB8808DC
:1084300006EB880601233374A7E6BCF80230694EC8
:1084400003EB830306EB8306F368002B40F03882CE
:1084500004228CF8002071686648012201F0D2FEE7
:108460000546002D3FF491AE3C6803AE41F61D5227
:1084700000239542B3600393C6E9033308BF1D464A
:108480003FF426AE59E2DCF804205B485388848828
:108490000168584803339BB29B0001EB8401002420
:1084A000009403248CF8004001F00EFE0546D8E746
:1084B000E288204641F61D5508EB0A0106EB8101D2
:1084C000D31C0A8913440B81E2880446D04406EB8E
:1084D00088067389033B9B1A7381C6E7474BA269E1
:1084E00047491A604FF0000B1846C3F804B0FFF775
:1084F00035FD002800F027820223A37504232946B6
:10850000CDF800B0E2183B4801F0DEFD00283FF452
:108510003CAEA37D3868E288022B00F21F8204463D
:108520000E25D3E7364B354A1D8851683148304A0D
:1085300000234FF0060C84F816C00093042301F0CA
:10854000C3FD0028E5D105EB850306EB8306012377
:10855000337409B0BDE8F08F23692648002B14BF9F
:10856000032301230022A37505F1080100920423CF
:1085700004F10C0201F0A8FD0028CAD105E6E38849
:1085800022691C484FF0010C05F10C01002584F80C
:1085900016C09B00009501F097FD0028B9D109B0E5
:1085A000BDE8F08F02230022A37504230092294620
:1085B000E218104801F088FD0028AAD109B0BDE8F2
:1085C000F08F032A0CBF052306230022A375291D63
:1085D0000092042304F10802064801F075FD00280A
:1085E00097D1D2E5702A00204C2A0020482B002089
:1085F000082F0300C0220020382B0020302A002042
:10860000442B00200499B64A8B88E3800B88238191
:10861000B44800950423BDF80A4001F055FD002838
:1086200040F09981B04B04EB840403EB84040123F4
:10863000237409B0BDE8F08FAC4BAD4A1968A94866
:1086400000230093CCF8043007238CF80030082373
:1086500001F03AFD054604E7BCF80220A24E930063
:10866000134406EB8306062000237168A14A009399
:108670008CF8000008239B4801F026FD0546F0E633
:10868000BCF802E0984EDCF804204FEA8E0404EBBC
:108690000E0306EB8303596801F58055002A69D162
:1086A00001F10802954240F204811368013300F0A1
:1086B00000815388033302EB83039D42C0F0F980AD
:1086C0009088484500F0EF801088002800F0EB808B
:1086D000CCF80420854C5388A58821688148033351
:1086E0009BB29B0001EB8501D9E603AE0023B3608A
:1086F0000393C6E90333EAE401238CF800309CF8C5
:108700000A30002B56D0784EF46800228CF80A20EC
:10871000002C4FD1327C002A4CD020465BE0BCF8C4
:108720000220714E71489300991806EB810104688C
:108730004D68B0F804E04C6002240560A1F808E040
:1087400084808DE7BCF802E06848674EDCF80420BE
:10875000838855884FEA8E0404EB0E0106EB8101F5
:10876000033349682B444FF0020801F5805583809C
:108770008CF800805388033302EB830292E75A4E51
:10878000BCF80810327D3378B2FA82F25209013116
:10879000B3FA83F35B098CF80B20ACF808100022C5
:1087A00001218CF80A30ACF802208CF80C208CF8EF
:1087B0000010A6E79CF80B30002B4BD04A4E336AD2
:1087C00000228CF80B20002B44D196F82430002B8B
:1087D00040D001242046A5002B1906EB8303DCF8CA
:1087E00004205968ACF8020001F5805E002A00F010
:1087F000CD805388033302EB830272451BD213688A
:10880000013318D05388033302EB83039E4512D300
:108810009088484503D0108800287FF459AF9E45C2
:1088200009D91A6801321A4605D05888033003EB7B
:1088300080039E45ECD22B1906EB8306F368002BD0
:108840003ED104208CF800000122264801F0DAFC19
:10885000054606E603AE0023B3608CF80030ACF8A2
:108860000230CCF804300393C6E903333C682FE4AC
:10887000013B062B3FF639AF01A252F823F000BFAF
:108880004189020081860200878402003B84020045
:10889000EB86020059860200398602009C452BD8DF
:1088A0000023036078E5AB4203D21A6801321A460E
:1088B00030D104EB0E0306EB8306F368002BC0D027
:1088C0000A4B0848196802229A8005228CF8002079
:1088D0000023012201F096FC0546C2E571467EE5C3
:1088E000082F0300C0220020702A0020382B00200F
:1088F000142F03000C2F0300196801311946CFD043
:10890000B3F802A00AF1030A03EB8A039C45BFF403
:1089100074ADC5E75888033003EB8003AB427FF6A4
:10892000CFAEC6E703AE294608221C480AF096F8E7
:108930000395C6E90255356102253C68FFF7C8BBBF
:108940009CF80A30DDE603AE0390C6E90200306110
:108950000A25FFF7BDBB3C680E2504E50E25ABE5F7
:1089600000239A001A4406EB820300205968009005
:10897000082306F822000A4A0A4801F0A5FB84E40D
:108980000123EEE73C680E2503AEECE401F108029A
:1089900033E7E28820460F258EE500BF482B0020F4
:1089A0000C2F0300C02200204068FFF74FBB00BF20
:1089B0002DE9F04782B0002A63D0B2F800A0B2F8E7
:1089C00002900E46054601A94648984600F022FD51
:1089D0001C22044600210AF041F8002C3ED000275A
:1089E00084F80080A4F814A0A7757368236101219E
:1089F0003D4800F03DFEE060338823817388A3800A
:108A0000B8F1030FA4F8069018D0678101A9354882
:108A100000F02EFD3DB100236B60E168334A296010
:108A20001289AB722A810121314800F015FE0446FB
:108A300070B10024204602B0BDE8F0870423A3757E
:108A40002B68A36101A96781264800F011FDE2E7C8
:108A5000FFF7FCFA204602B0BDE8F087254B0AEB91
:108A60008A0A03EB8A0AC9F57F49BAF80A30082452
:108A700009F1FD0999442046AAF80A9002B0BDE820
:108A8000F087B1F8089009F1030292B240F2FD3488
:108A9000A24219D8174C27783FB9668925893544F1
:108AA0001544ADB2B5F5806F10D3257D3DB9E68B89
:108AB000A58B35441544ADB2B5F5806F0ED30724B0
:108AC000204602B0BDE8F0870924B3E7BA46BD00EE
:108AD0003D4404EB85043244628172E74FF0010AA1
:108AE0005746F4E7242B0020682A0020542A00204F
:108AF000342B0020702A002038B5084B1A68042A4D
:108B00000AD01D68064C02460121184644F825206B
:108B100000F0AEFD002038BD0C2038BD402B0020F9
:108B20003C2A00202DE9F04F944D89B02A7800238B
:108B3000CDE90333CDE90533079372B1904C04F1CD
:108B4000100554F8043B03A803B19847A542F8D197
:108B50000024204609B0BDE8F08F281D02F0FF096F
:108B600000F09EFD0028F3D140F6F8731B685C1CF2
:108B700049D04FF0805211695269DFF83082814943
:108B8000C8F810304046A3F540530022C8F80C3016
:108B900001F06CFA04460028DBD11C238C227A49B0
:108BA0007A48DFF80CA200F0FBFB26464FF0030BDF
:108BB0002746D8F80C3006EB030CF2586346BCF19C
:108BC000000F2BD072498A4228D1DCF80420714969
:108BD0008A4200F0898001318A421FD1B9F1000F29
:108BE00040F099806C4B6D49C3F800C0604600228C
:108BF0000193FFF745F9019B9B88022B0CBF0423CF
:108C000008231C4323E0664B4FF080521B68116918
:108C10005269581C08BF02FB01F3AEE70CF5805106
:108C200001E099424BD01A68013203F10403F8D0F5
:108C300007EB87030AEB830203210BF1FF3B0137AC
:108C40000AF823101FFA8BFBBFB2C2F804C006F566
:108C50008056B6F5405FACD1BBF1010F40F2858084
:108C6000E4B2022C00F08180062C0ED1444C01228B
:108C700000232A7004F110066B6054F8043B03A82B
:108C800003B19847B442F8D162E7002C6DD002A935
:108C90003E4800F0BFFB1C220546002109F0DEFE25
:108CA000002D60D00123013C2B700A2C43D8DFE853
:108CB00004F0544254425742574251405100364BFF
:108CC0001A68002A53D007EB87030AEB83010222BC
:108CD0003448C1F804C00A810AF82320791C47806F
:108CE0008FB244F00104B2E707EB8703990000223A
:108CF0000AF823200AEB010301F110020831524463
:108D00005144C3F804C060460137FFF7B9F844F096
:108D10000204BFB29BE707EB870E1F4B0AEB8E02E4
:108D20000221013718680AF82E10BFB25060118175
:108D300059E702232B7102A9144800F099FB012185
:108D4000194800F089FC044600287FF401AFFFF7C2
:108D50007DF9FEE603232B71EDE700232B71EAE793
:108D600001232B71E7E70824F3E60B24F1E6022246
:108D7000C3F800C09A804FF00109B2E74C2A0020E6
:108D80003C2A002028310300982A0020242B0020B0
:108D9000DEC0ADDEFE011EF1382B00203C2B002092
:108DA00014100010542A0020342B0020C022002070
:108DB000702A002008B301B370B582B00C460DF1E3
:108DC00006010546FFF7CAF810B90A2002B070BDC7
:108DD000BDF806000A4B6E6800EB800003EB8000D4
:108DE00001210C3000F044FC26606B6801220C333A
:108DF00000206360AA7202B070BD0520704700BFFA
:108E0000702A002000B310B582B00DF106010446AF
:108E1000FFF7A4F8A8B1BDF806300C4A03EB8303B2
:108E200002EB8303DA684AB1A27A3AB1DA68002128
:108E3000013A0846DA60A17202B010BD062002B005
:108E400010BD0A2002B010BD05207047702A002016
:108E50002DE9F0474D4B1B7882B063B3002940D019
:108E60000A884FF6FF739A4220D04B88F3B14D68C1
:108E700015F0030530D1B1F8089009F103039BB256
:108E800040F2FD3293422ED8414A14783CB95689BB
:108E9000148934441C44A4B2B4F5806F25D3147DE6
:108EA00074B10725284602B0BDE8F087042528469E
:108EB00002B0BDE8F0870225284602B0BDE8F08781
:108EC000D68B948B34441C44A4B2B4F5806FE8D2A2
:108ED0004FF00108C4460AE00325284602B0BDE869
:108EE000F0870525DEE70925DCE7A846AC464FEA12
:108EF0008C07674402EB870733440C46824601A97E
:108F000024487B8100F086FA1C220646002109F0E5
:108F1000A5FD002E30D002230027A6F81480337060
:108F2000B7756368336101211B4800F0A1FBF06055
:108F3000238833816388B38001A97781A6F80690DE
:108F4000144800F095FABAF1000F0AD0CAF804707C
:108F5000F268124BCAF800201B898AF80A70AAF836
:108F6000083001210E4800F077FB0446002899D113
:108F7000FFF76CF8254695E77B89C9F57F4909F12C
:108F8000FD099944A7F80A9008258BE74C2A002090
:108F9000702A0020242B0020682A0020542A002058
:108FA000342B0020A0B10F4A1278BAB181B110B4AD
:108FB0000C884FF6FF7294420CD04A8852B14A682E
:108FC00012F003020CD103235DF8044BFFF7F0BC51
:108FD0000520704704205DF8044B7047022070475D
:108FE0000320F8E74C2A002070B51B4B1B7882B099
:108FF0000BB34FF6FF73984225D001A904461748DA
:1090000000F008FA1C220546002109F027FDB5B141
:1090100005230126EC8001A92B702E710F4800F06A
:1090200027FA31460E4800F017FB044678B10024B9
:10903000204602B070BD0224204602B070BD082454
:10904000204602B070BD0424204602B070BDFEF779
:10905000FDFF204602B070BD4C2A0020242B0020CA
:10906000342B002010B5184B1B7882B0F3B101A946
:10907000164800F0CFF91C220446002109F0EEFC4E
:10908000ECB10623237001A9104800F0F1F9104B50
:109090001A780AB101221A7301210E4800F0DCFA95
:1090A000044638B10024204602B010BD02242046F8
:1090B00002B010BDFEF7CAFF204602B010BD082462
:1090C000204602B010BD00BF4C2A0020242B0020F7
:1090D000542A0020342B00202DE9F043374C24780B
:1090E000002C64D0002A65D0002B63D0B3F804C0F4
:1090F000BCF1010F15D8324E0CEB8C0406EB840644
:109100004FF6FF7E4FF00008347864B10CF1010C8B
:109110001FFA8CF4022C9C8006F114064FF0010C0F
:10912000F2D10A202FE01C68756805F58057002CE5
:109130003AD06588033504EB8504BC4202D3C3F8FA
:109140000080E3E725680135F9D06588033504EB35
:109150008505BD42F3D8B4F80490F14515D0B4F8B4
:109160000090B9F1000F10D01C60A5888542DBD1BA
:1091700025888D42D8D1A16811601968114B5160C2
:109180001B8913810020BDE8F083AF42D7D92C683A
:1091900001342C46D3D0B5F8029009F1030905EB50
:1091A0008905AF42D7D2CAE705F10804C5E7022016
:1091B000BDE8F0830520BDE8F08300BF4C2A002005
:1091C000702A0020542A0020354B1B78002B62D0D7
:1091D000002962D0002A60D02DE9F041B2F804E005
:1091E000BEF1010F14D82F4D0EEB8E0305EB830556
:1091F0004FF6FF774FF0000C2B785BB10EF10103B7
:109200009BB2022B938005F114054FF0010EF3D1B0
:109210000A202CE013686C6804F58056002B37D0C8
:109220005C88033403EB8403B34202D3C2F800C06A
:10923000E4E71C680134F9D05C88033403EB840450
:10924000B442F3D8B3F80480B84512D0B3F8008024
:10925000B8F1000F0DD013601C888442DBD19B68ED
:109260000B601268104B4A601B890B810020BDE81F
:10927000F081A642DAD9236801332346D6D0B4F868
:10928000028008F1030804EB8804A642DAD2CDE795
:1092900004F10803C8E7022070470520704700BFAB
:1092A0004C2A0020702A0020542A0020354B1B78BD
:1092B000002B62D0002962D0002A60D02DE9F04155
:1092C000B2F804E0BEF1010F14D82F4D0EEB8E035F
:1092D00005EB83054FF6FF774FF0000C2B785BB161
:1092E0000EF101039BB2022B938005F114054FF0A0
:1092F000010EF3D10A202CE013686C6804F5805647
:10930000002B37D05C88033403EB8403B34202D3D1
:10931000C2F800C0E4E71C680134F9D05C8803346B
:1093200003EB8404B442F3D8B3F80480B84512D0F8
:10933000B3F80080B8F1000F0DD013609C88844210
:10934000DBD19B680B601268104B4A601B890B8154
:109350000020BDE8F081A642DAD923680133234614
:10936000D6D0B4F8028008F1030804EB8804A642C2
:10937000DAD2CDE704F10803C8E7022070470520E0
:10938000704700BF4C2A0020702A0020542A002079
:1093900020B119B103680B600020704705207047A9
:1093A00099B110B4B2FBF3F403FB1424A4B244B992
:1093B000C0E9001484608281C38120465DF8044BBB
:1093C000704709205DF8044B70470E20704700BFBE
:1093D00082B050E8022FC188B2EB324F4FF0000349
:1093E00017BF92B241EA014142EA014104E04268FA
:1093F000B2EB324F08BF012340E80212002AE8D145
:109400008DF807309DF80730002B0CBF112000208D
:1094100002B0704730B482B050E8013F9DB2C489B9
:1094200025448489A54228BF2D1B0489A54202BF7B
:10943000BFF32F8F002207E0C5EA030540E801547F
:10944000002CE9D14FF001028DF803200193019B1C
:109450009DF803200B602AB10B880068184402B005
:1094600030BC704702F0FF03184602B030BC7047B2
:109470000A884B889A4201D00020704750E8012F9B
:10948000C2EA024240E80123002BF7D101207047D5
:1094900030B482B050E8023F1FFAA3F5C488A54259
:1094A00002BFBFF32F8F00220DE0C48925448489B9
:1094B000A54228BF2D1BC3EA054540E80254002CF5
:1094C000E8D14FF001028DF803200193019B9DF834
:1094D00003200B602AB14B880068184402B030BCEE
:1094E000704702F0FF03184602B030BC704700BF5F
:1094F0000A884B889A4201D00020704750E8022F1A
:10950000C2EA224240E80223002BF7D10120704733
:1095100001F01F024B09012100EB8300914000F094
:1095200083B800BF10B5012301F01F04490900EB07
:10953000810003FA04F100F06BF8E04000F0010054
:1095400010BD00BF01F01F0201234909934000EB49
:109550008100D94300F074B84B0901F01F0150F8A5
:109560002300C84000F00100704700BF2DE9F04F14
:1095700001F1FF3A83B04FEA5A130E4604460193B5
:109580004FF000094FF0010854F8292004EB890737
:10959000D24392FAA2F2B2FA82F2202A24D04FEAFF
:1095A000491505EB020A56450CD81DE03B68DB4324
:1095B00093FAA3F3B3FA83F3202B05EB030A13D03A
:1095C000564511D90AF01F0B4FEA5A1008FA0BF151
:1095D00004EB800000F01CF820FA0BF0C307E5D480
:1095E000504603B0BDE8F08F019A4A4509F10103E6
:1095F00001D09946C8E7B246F2E700BF50E8002F15
:109600000B4640E8003C9CF0000FF7D11046704735
:1096100050E8002F42EA010340E8003C9CF0000FB4
:10962000F6D11046704700BF50E8003F43EA010200
:1096300040E8002C9CF0000FF6D11046704700BFA8
:1096400050E8003F03EA010240E8002C9CF0000FC4
:10965000F6D11046704700BF50E8002F02EB01031F
:1096600040E8003C9CF0000FF6D11046704700BF68
:1096700050E8003F03EB010240E8002C9CF0000F93
:10968000F6D11046704700BF50E8003FA3EB01023F
:1096900040E8002C9CF0000FF6D11046704700BF48
:1096A000012350E800CF4CEA030240E8002191F08A
:1096B000000FF6D160467047012350E8002F42EAC0
:1096C000030C40E800C191F0000FF6D160467047EE
:1096D000002350E800CF0CEA030240E8002191F09B
:1096E000000FF6D160467047B8B130B4D0E901122E
:1096F000521A0468D2B2531E2160DBB242B1016833
:109700000A685C1E551C0D601370E3B2FF2BF6D186
:1097100003680020187130BC70470E20704700BFEE
:10972000F0B583B0044600250DF107008DF8075011
:10973000FEF768FBD4E900311A688A4210D9511E3D
:1097400019602168A3680F6812F8015C0A79268AFB
:10975000E068DB1BDBB29A4206FB050538BF0B71E4
:109760009DF80700FEF774FB284603B0F0BD00BF6C
:1097700030B5054683B000230DF107000C468DF887
:109780000730FEF73FFB2A681368591C1160E9682F
:109790002A8A641AB4FBF2F41C709DF80700FEF7E5
:1097A00057FB03B030BD00BF826842B110B504461C
:1097B00043690168006998470023A36010BD7047A2
:1097C0000EB400B582B0039921B104AB01AA019394
:1097D00000F0B2F802B05DF804EB03B0704700BFD0
:1097E0002DE9F04F8A4683B09245164605469846C5
:1097F000DDE90CB1C0F09C8053460127B3FBF6F3C2
:109800009E4207F10107F9D9474538BF474611F095
:109810000103AA68009302D1BBF1000F68D10124B3
:1098200003E008F1FF3806FB04F4B8F1010FF8D8A3
:10983000BAFBF4F08642F6D9DFF8F8904FF00D0845
:1098400007E0B442B4FBF6F31CD3BAFBF3F0AA680A
:109850001C4619F8003029680A2B04FB10AA01EBFA
:10986000020E02F1010028D0A8608EF80030D5E980
:1098700001329A42E5D32846FFF796FFB4FBF6F390
:10988000B442E2D2009BABB1BBF1000F12D0BB459A
:1098900010D92024AB682A68591CA960D454D5E992
:1098A00001329A420BF1FF3B1ED2BBF1000F01D0F7
:1098B000BB45EFD103B0BDE8F08FA86001F802808E
:1098C000D5E90120904204D22A6802EB000E013053
:1098D000CAE728460193FFF767FFAA682968019B3A
:1098E000501C01EB020EBFE72846FFF75DFFDCE7E7
:1098F0008B0717D42024BB4591D92B68511CA96034
:109900009C54D5E901329A420BF1FF3B05D2BBF1E1
:10991000000F84D0BB45F0D181E72846FFF744FF14
:10992000AA68F4E7B8F1000F0CBF30242024E2E766
:10993000012769E71C2F0300002900F0E8822DE9C8
:10994000F04F054685B091460C460E78DFF814A717
:109950004FF00D0B13E0AB6828680A2E03F10102EB
:1099600000EB030100F02681AA600E70D5E90132F8
:109970009A4280F011812678002E00F01481013483
:10998000002E00F01081252EE5D12146002711F888
:10999000012B2D2A00F0E580302A00F0E6802B2AEA
:1099A00000F0D6802A2A00F01181A2F13006F3B22D
:1099B000092B03D922E2A3F130060146084606EB43
:1099C000860310F8012BA2F13004092C02EB4303AB
:1099D000F1D92E2A00F006814FF0000802F0FB03B7
:1099E000682B01F1010405D114F8012B02F0FB03EF
:1099F000682BF9D0253A532ABDD801A353F822F099
:109A0000959D0200779902007799020077990200EC
:109A100077990200779902007799020077990200FE
:109A200077990200779902007799020077990200EE
:109A300077990200779902007799020077990200DE
:109A400077990200779902007799020077990200CE
:109A500077990200779902007799020077990200BE
:109A600077990200779902007799020077990200AE
:109A7000779902007799020077990200779902009E
:109A8000779902007799020077990200779902008E
:109A9000779902007799020077990200779902007E
:109AA000779902007799020077990200779902006E
:109AB000779902007799020077990200779902005E
:109AC000779902007799020077990200AD9D020014
:109AD000779902007799020077990200779902003E
:109AE000779902007799020077990200779902002E
:109AF0007799020077990200739B02000F9D020084
:109B0000779902007799020077990200779902000D
:109B10000F9D020077990200779902007799020061
:109B2000779902007799020077990200879C0200DA
:109B300077990200779902002D9C02007799020024
:109B4000119C02007799020077990200AD9D0200F6
:109B500047F004070C46214611F8012B2D2A7FF40B
:109B60001BAF47F001070C46F5E747F002070C462C
:109B7000F1E7D9F800301A1DC9F800201E78AB684B
:109B80000A2E00F04C822A68591CA960D654D5E9E7
:109B900001329A42FFF4EFAE2846FFF705FE267821
:109BA000002E7FF4ECAE2B7B002B40F0218105B022
:109BB000BDE8F08FAA6000F803B0D5E901329A42FF
:109BC00080F00E81296811440132CDE6D9F80030C9
:109BD0001A1DC9F8002062781E682E2A04F10200BE
:109BE0007FF4FAAE4A78A2F13003092B01464FF018
:109BF00000083FF6F3AE08EB880802EB480811F8BE
:109C0000012FA2F13003092BA8F13008F3D9E5E6C2
:109C1000D9F800301A1DC9F8002019680197434689
:109C200000960A222846FFF7DBFDA4E6D9F80030AB
:109C30001A1DC9F8002017F00107D3F8008040F082
:109C4000EA80B8F1000F03D0404608F00FFF074646
:109C5000BE4240F25D81002E00F05A81202102E0D8
:109C6000BE4200F05581AA682B68501CA860995428
:109C7000D5E90123934206F1FF36F1D32846FFF7D9
:109C800093FD2021ECE7D9F80020131DC9F800301E
:109C9000AB6829681768581C3022A860CA54D5E9F7
:109CA0000123934280F0F1802A68581C7821A86033
:109CB000D154D5E90123934280F0E2800F2F03D9DC
:109CC0003A4612090F2AFCD84FF0805606E00F2EB4
:109CD0004FEA16137FF64FAE1E46AB68B7FBF6F29F
:109CE0001AF802802868B8F10A0F06FB127700EB19
:109CF000030103F1010267D0AA6081F80080D5E971
:109D000001329A42E3D32846FFF74EFDDFE7D9F848
:109D100000301A1DC9F80020196881EAE172A2EB2F
:109D2000E172092A4FF001000BDDDFF83CC300E0CF
:109D30001A46ACFB02E3632A00F101004FEAD303A9
:109D4000F6DC4045034638BF4346029307F0020362
:109D5000002E57D00029C0F29D80780700F19A802C
:109D6000002B00F09980B8F1000F40F09580002999
:109D7000C0F236817B0700F1468107F00303022B16
:109D800000F0FD80CDE9006743460A222846FFF730
:109D900027FDF0E5AB682A68581C2521A860D1543E
:109DA000D5E901329A42FFF4E6ADF5E6D9F8003084
:109DB0001A1DC9F800201968019743460096102221
:109DC0002846FFF70DFDD6E5AA6000F803B0D5E9F7
:109DD00001329A4280F093802B68991801328BE708
:109DE0002846FFF7E1FCAB6829685A1C1944BBE51B
:109DF000284605B0BDE8F04FFFF7D6BC0846002660
:109E00002146E6E52BB1B8F1000F00F02581FB07F4
:109E1000ADD40026ABE798F80020002A00F020819E
:109E2000AB684746C8F10101D5F800E00A2A01EB0A
:109E300007080EEB030C03F1010054D0A8608CF866
:109E40000020D5E90123934242D217F8012F002ABE
:109E5000EAD146457FF68FAD202702E046453FF424
:109E60008AADAA682B68511CA9609F54D5E90132BC
:109E70009A4206F1FF36F1D32846FFF795FCEDE74D
:109E80002846FFF791FCAB6818E72846FFF78CFCE3
:109E9000AB6809E7013E63E7FA073FF568AF002EBC
:109EA000B7D0029B9E427FF662AF2023AA68501C67
:109EB000A86028688354D5E90102824206F1FF3682
:109EC00080F0BC80002EA4D0029A9642EED14EE7DC
:109ED00028460291FFF768FC17F8012F002AB8D036
:109EE000AB680299A0E7A8600EF803B0D5E901308D
:109EF000984260D22B6803EB000C01309EE72846A5
:109F0000FFF752FCA9682B684A1C1944F4E6704715
:109F100098F80060002E3FF42EADAB6828680A2E3A
:109F200003F1010200EB030111D0AA600E70D5E924
:109F3000012393421BD218F8016F002E3FF41BAD92
:109F400028680A2E03F1010200EB0301EDD1AA609B
:109F500000F803B0D5E901329A4239D22968114498
:109F60000132AA600E70D5E901239342E3D328465B
:109F7000FFF71AFC18F8016F002ECED1FBE4B8F100
:109F8000000F7FF4FFAE002E68D0029B9E427FF64A
:109F9000F9AE3023AA68501CA86028688354D5E91C
:109FA0000102824206F1FF364FD2002E56D0029AAD
:109FB0009642EFD1E6E62846CDE90221FFF7F4FB11
:109FC000AB682A68581C02EB030CDDE9022135E777
:109FD0002846FFF7E9FBAB6829685A1C1944A4E737
:109FE000AA68531CAB602B682D209854D5E9013228
:109FF0009A42C1F10001FFF4C0AE28460391FFF779
:10A00000D3FB0399B9E6AA68531CAB602B682B20DD
:10A010009854D5E901329A42FFF4AFAEEDE72A68D1
:10A02000591CA96002F803B0D5E901239342FFF45B
:10A03000AAAD2846FFF7B8FBAB68A4E52846039114
:10A04000FFF7B2FB202303993CE728460391FFF773
:10A05000ABFB30230399A8E7464688E6002691E645
:10A060009046F6E61C2F0300CDCCCCCC10B582B0C8
:10A0700038B1B9B101600B68114602B0BDE81040BB
:10A0800018470B480B4C0C4B0C4A0D49001BC008E1
:10A090000E24000440F001000094FCF779FE0E202D
:10A0A00002B010BD0248034C034B064AEDE700BF67
:10A0B000B0510300705103002C2F0300E02F030068
:10A0C000E82F0300143003002DE9F04182B000288E
:10A0D00058D0002A68D0D0F800C0BCF1000F68D07A
:10A0E0001C4673B34768D7F80480B3FBF8F708FB46
:10A0F0001737002F37D18F073AD112F0030F3CD119
:10A10000C768B94211D23348334C344B344A3549CD
:10A11000001BC0081024000440F001000094FCF76C
:10A1200037FE204602B0BDE8F0814D1E06692C4482
:10A13000B442E8D8DCF80C40A44602B0BDE8F041D7
:10A1400060472448244C254B274A2649001BC00859
:10A150000924000440F001000094FCF719FE204699
:10A1600002B0BDE8F0811B481B4C1C4B1F4AECE7BA
:10A170001848194C194B1E4AC9E71648164C174B7C
:10A180001C4AC4E71348144C144B1B4A1549001BC6
:10A19000C0080E24000440F001000094FCF7F8FD14
:10A1A000204602B0BDE8F0810A480B4C0B4B134A25
:10A1B000ECE7094C0748094B114A0A49001BC00843
:10A1C0000824000440F001000094FCF7E1FD204663
:10A1D000A8E700BFB051030070510300402F0300F7
:10A1E000E4300300E82F0300243003007C30030038
:10A1F000A8300300C0300300E02F030074300300D8
:10A2000068300300F0B583B0002843D0D0F800C018
:10A21000BCF1000F4ED03AB34768D7F800E00EF11A
:10A22000FF370F4231D1C768B94210D229482A4CB2
:10A230002A4B2B4A2B49001BC0081024000440F075
:10A2400001000094FCF7A4FD204603B0F0BD4D1EB4
:10A2500004690EFB0255A542E8D8DCF81040A4467C
:10A2600003B0BDE8F04060471B4C1A481B4B1E4A28
:10A270001C49001BC0080924000440F001000094A0
:10A28000FCF786FD204603B0F0BD1248124C134B7C
:10A29000164ACFE7104C0F48104B154A1149001BC6
:10A2A000C0080E24000440F001000094FCF770FD8B
:10A2B0002046CAE7084C0748084B0E4A0949001BCC
:10A2C000C0080824000440F001000094FCF760FD81
:10A2D0002046BAE7B051030070510300542F030029
:10A2E000902F0300E82F030024300300682F0300A1
:10A2F000E02F03006830030029DF704728DF704734
:10A300000846704700207047024B187A003018BF8B
:10A3100001207047EC2B0020034B187A0122B0FA81
:10A3200080F05A7440097047EC2B002008B51046A5
:10A330001A4608F085FB002008BD00BF08B51422AE
:10A340000021044808F08AFB0348FFF741F8002089
:10A3500008BD00BFEC2B0020DC2B002010B50A4C00
:10A360000A4B43602046FFF79BF908B1002010BD5F
:10A3700008F09CF91C2320748C2205490548FFF73E
:10A380000FF8002010BD00BFEC2B00201C31030093
:10A39000502B0020DC2B002030B55D4D2B7A87B090
:10A3A000002B39D05B4B1C6802232B722379002BC6
:10A3B0003DD0012B24D022689368C3B100236846A6
:10A3C0000093C0E90233032103610191A36805935F
:10A3D0002379002B57D0012B07D102238DF80030B1
:10A3E000E3681B030293636904939368984700230F
:10A3F00049494A482B726B60FFF77AF807B030BDC5
:10A40000D4E903031844FFF779FF20B31128D2D110
:10A4100001232B7207B030BD3F494048FFF738F8A1
:10A420003C4B044618600028BED16860E6E7D4E9DA
:10A430000520121AB2F5805F28BF4FF48052D4E98C
:10A4400003139208012A38BF012201441844FFF780
:10A4500053FF0028DAD12B7C002BCFD12B7A002B95
:10A46000CCD0022B0AD1E8602379DBB1012B05D1D6
:10A47000D4E904320133934223611FD06B7C73B95A
:10A48000FFF78AFFBAE701238DF8003023690293B2
:10A49000E36803936369049393689847A7E708F018
:10A4A000F5F8ABE7D4E90523D11AB1F5805F94BF85
:10A4B0005B1803F580539A42A361DFD100232B720E
:10A4C00022689168A9B168460093C0E90133C0E9E8
:10A4D0000333A3680593237983B1012B07D10223AA
:10A4E0008DF80030E3681B0302936369049393685B
:10A4F000984709490948FEF7FBFFBFE701238DF89C
:10A50000003023690293E368039363690493EEE7E1
:10A51000EC2B0020042C0020002C0020DC2B002041
:10A5200000F0FD03012B00D07047A0F10100044BA7
:10A53000B0FA80F04009002218745A74FFF72CBF5B
:10A54000EC2B00202DE9F04784B08246894618485C
:10A5500003A990461F46FEF75DFF20B30446002185
:10A560001C220D46134E08F079FA0C9BC4F800A08B
:10A57000A360C4E90389676103A925710C48FEF74C
:10A5800077FF301DFFF78CF818B1284604B0BDE8FE
:10A59000F087737C002BF9D10190FFF7FDFE019845
:10A5A00004B0BDE8F087042004B0BDE8F08700BF28
:10A5B000DC2B0020EC2B00202DE9F04385B08146F8
:10A5C0000D46174803A917469846FEF723FF18B310
:10A5D00004461C22002108F041FA124EC4F80090F3
:10A5E00001232D0BC4E90285676103A923710C487F
:10A5F000FEF73EFF301DFFF753F818B1002005B0FD
:10A60000BDE8F083737C002BF9D10190FFF7C4FE05
:10A61000019805B0BDE8F083042005B0BDE8F083E3
:10A62000DC2B0020EC2B0020831E012B3FD810B523
:10A63000334C237A86B0002B37D0022B31D103283C
:10A640003AD0304B00221B68E2601A79002A40D0D1
:10A65000012A26D1D3E9042101328A421A6120D18C
:10A660000020207219688A68BAB10022CDE903225D
:10A67000029200929A68019005921A79002A35D0C8
:10A68000012A07D1DA685B6904931303022202935B
:10A690008DF800208B68684698471B491B48FEF7D9
:10A6A00027FF637C23B9FFF777FE06B010BD704724
:10A6B00007F0ECFF06B010BDE3680133082B01D8AA
:10A6C000E360EEE70F4B00221B68E26022720D2070
:10A6D000C8E7D3E90512881AB0F5805F94BF121855
:10A6E00002F5805291429A61DBD1B9E701221869E3
:10A6F0008DF80020DA685B690493CDE90202C9E7AE
:10A70000EC2B0020042C0020002C0020DC2B00204F
:10A71000FEF7EABF2DE9F041058ACF1C043D2F4426
:10A720000646B7FBF5F7FEF7FBFF002834D0FFB273
:10A730004FF48073013F0446C580066083802CD0AF
:10A740008046002509E06379AF4203F1010363719C
:10A75000C8F80000066080461FD03046FEF7E0FFD4
:10A7600001350028EFD194F805802768B8F101037E
:10A7700016D03D46013083422D68FBD1B8F1000F61
:10A780000AD0002601E03C463F68214601362846B3
:10A79000FEF7EEFFB045F6D800242046BDE8F08174
:10A7A00021463846FEF7E4FFF6E700BF04300121FA
:10A7B000FEF75EBF2DE9F041012104460430FEF7AB
:10A7C00063FFC0B208B1BDE8F08194F80580256848
:10A7D000B8F1010314D02E46013083423668FBD114
:10A7E000B8F1000FEFD0002701E02C462D6821467C
:10A7F00001373046FEF7BCFFB845F6D8BDE8F0811A
:10A8000021462846BDE8F041FEF7B2BF2DE9F843E6
:10A810000546C6884079144606FB00F2043A04EB6C
:10A82000030C1F1D624538BFD41ABE428846B7FBD1
:10A83000F6F106FB117002D801392D68FCD1371AE8
:10A84000A74228BF27469CB14FF000090430E41B03
:10A8500028443A4608EB090108F0F2F8A642B94448
:10A860002D6837464FF0000028BF2746002CEDD159
:10A87000BDE8F8832DE9F8430546C68840791446BB
:10A8800006FB00F2043A04EB030C1F1D624538BFBF
:10A89000D41ABE428846B7FBF6F006FB107102D808
:10A8A00001382D68FCD1771AA74228BF27469CB1F2
:10A8B0004FF0000904312944E41B3A4608EB090033
:10A8C00008F0BEF8A642B9442D6837464FF00001A3
:10A8D00028BF2746002CEDD1BDE8F88341DF704743
:10A8E000064A074B10B5002414701C60BFF35F8F3D
:10A8F0000449054800F042F8204610BD102C002005
:10A90000142C002048310300082C002000B583B02F
:10A9100000230DF107008DF80730FDF773FAF1EE13
:10A92000103A23F09F03E1EE103ABFF35F8F0B4B19
:10A930004022C3F884219DF80700FDF789FA07F04B
:10A94000B5FE28B920BF40BF20BF03B05DF804FBAF
:10A95000FFF7C4FF03B05DF804FB00BF00E100E0B7
:10A960008268002393608268136182685361826801
:10A97000D3608268536082681360704701600B681F
:10A9800043604A68934204BF00234360704700BF9E
:10A99000436843B1026891680B4443605268934234
:10A9A00004BF00234360704730B41F49A1F594727F
:10A9B0008B1ADB1003EBD3735B10DD0052F83330DE
:10A9C000984202EB050420D2A24218D2ED1005EB0A
:10A9D000D5756D1002EBC50152F83530984205D39C
:10A9E00010E052F8333098420FD221468B1ADB1018
:10A9F00003EBD3735B108A4202EBC304F1D30B4821
:10AA000030BC704722460C461146984204D904F1E6
:10AA100008028A42CCD3F2E76068044B30BC0028BD
:10AA200008BF1846704700BF9C3203006031030026
:10AA300030B4B84B1B78062B20D0B74B1B68062BC5
:10AA400000F08180B54AD2F8883043F47003C2F830
:10AA50008830BFF34F8FBFF36F8F4FF01023D3F8C1
:10AA60000022002AC0F28681D3F80432002BC0F203
:10AA70008181AB4BAB4A1A6030BC7047AA4B1B6854
:10AA80001D07DAD1A94B1B6803F0F002302A00F051
:10AA90009B8003F0E003402B00F09680A34B1B68E3
:10AAA00003F0F003302B00F0A080A04B1B6803F0F4
:10AAB000F002302A77D003F0E003402B73D09B4B99
:10AAC0001B6803F0F003302B00F01481974B1B68D8
:10AAD00003F0F002302A52D003F0E003402B4ED0B6
:10AAE000924B1B6803F0F003302B00F0F5808F4B86
:10AAF0001B6803F0F003302B00F0D7808B4B1B68F2
:10AB000003F0F003502B7ED0884B1B6803F0F0025B
:10AB1000302A23D003F0E003402B1FD0834B1B6867
:10AB200003F0F002302A03D003F0E003402B84D17D
:10AB30004FF08043D3F80024D20744BF6FF00102E6
:10AB4000C3F8002479E77A4B1B68062B7FF47AAFB1
:10AB5000784A136843F48063136073E7764B6D4A59
:10AB60001B681278754903F04F03062A0B607FF4C7
:10AB700064AF6D4B1B6819077FF45FAFCEE7654A82
:10AB800011784FF0804300220629C3F80C21C3F846
:10AB90001021C3F838257FF450AF634B1B681B07A7
:10ABA0007FF44BAF9CE7664B5A4A1B6812786549A5
:10ABB000C3F34233062A0B607FF43FAF5A4B1B6846
:10ABC00019077FF43AAF7AE75F4B524A1B68127855
:10ABD0005E49C3F30423062A0B607FF42EAF524B69
:10ABE0001B681C077FF429AF58E74A4B584A1B786B
:10ABF00058491160062B7FF420AF4B4B1B68180798
:10AC00007FF41BAF51E74FF08052534BD2F804143E
:10AC1000C3F82015D2F80814C3F82415D2F80C1480
:10AC2000C3F82815D2F81014C3F82C15D2F8141450
:10AC3000C3F83015D2F81814C3F83415D2F81C1420
:10AC4000C3F84015D2F82014C3F84415D2F82414E0
:10AC5000C3F84815D2F82814C3F84C15D2F82C14B0
:10AC6000C3F85015D2F83014C3F85415D2F8341480
:10AC7000C3F86015D2F83814C3F86415D2F83C1440
:10AC8000C3F86815D2F840142248C3F86C15D2F8FE
:10AC900044140278C3F87015062A7FF4CEAE224B16
:10ACA0001B6818077FF4C9AE2EE71A4B2B4C1B7894
:10ACB0002B492C482C4A0525256001250D600024D0
:10ACC0003F21062B046011607FF4B7AE164B1B6862
:10ACD0001C077FF4B2AE11E70E4B244A1B78032108
:10ACE000062B11607FF4A9AE0F4B1B681D077FF484
:10ACF000A4AEFCE61E4A0749D368097823F08073A6
:10AD00000629D3607FF499AE074B1B681A077FF4BE
:10AD100094AEDBE6E00F00F03001001000ED00E043
:10AD2000342200200090D003E40F00F0E80F00F080
:10AD3000340100103C17004058020010E40E00409F
:10AD4000440200103C05004024030010403501403F
:10AD500074C007400DF0ADBA00C00040105600406E
:10AD6000885600401856004014560040A005004088
:10AD7000F0ED00E0184A0123C2F80435D2F800349F
:10AD8000002BFBD04FF010231521134AC3F80012FB
:10AD9000D2F80034002BFBD04FF0102315210E4ABF
:10ADA000C3F80412D2F80034002BFBD000230A4968
:10ADB000C2F80435D1F80034002BFBD0BFF34F8F1D
:10ADC0000649074BCA6802F4E0621343CB60BFF345
:10ADD0004F8F00BFFDE700BF00E0014000ED00E045
:10ADE0000400FA05054A4FF0A043105CD3F804357F
:10ADF00023FA00F0C04300F0010070478C360300D6
:10AE0000044B195C4FF0A04201238B40C2F80C3573
:10AE1000704700BF8C360300044B195C4FF0A04212
:10AE200001238B40C2F80835704700BF8C36030001
:10AE30004FF0A04310B44FF480204FF400344FF48F
:10AE400000214FF48012C3F80845C3F80805C3F881
:10AE50000815C3F808255DF8044B70474FF0A04370
:10AE600010B44FF480204FF400344FF400214FF41D
:10AE70008012C3F80C45C3F80C05C3F80C15C3F8D1
:10AE80000C255DF8044B7047074B4FF0A041185C50
:10AE9000D1F804350122824022EA03001340C1F8B0
:10AEA0000805C1F80C3570478C360300054A4FF091
:10AEB000A043105CD3F8103523FA00F0C04300F033
:10AEC00001007047883603000D2809D00E2809D0EC
:10AED0000F2809D010280CBF03204FF0FF30704717
:10AEE000002070470120704702207047014B185C1A
:10AEF000704700BF88360300C20730B41AD54FF040
:10AF0000A0430322C3F844274FF40035C3F8482771
:10AF10004FF48024C3F84C274FF40021C3F8502786
:10AF20004FF48012C3F80855C3F80845C3F8081554
:10AF3000C3F8082583070AD54FF0A0430C22C3F8B5
:10AF40003427C3F83827C3F83C27C3F8402730BC60
:10AF5000704700BF10B568B90E4CA368012262703B
:10AF60003BB1D3E900230020A2609847A368002BDF
:10AF7000F7D110BD0128FCD1064C2369A070002B2D
:10AF8000F7D0D3E900230120226198472369002BE1
:10AF9000F7D110BD182C002070B910B5074CA3686C
:10AFA000012262703BB1D3E900230020A2609847E0
:10AFB000A368002BF7D110BD704700BF182C0020EC
:10AFC00030B5012883B01DD0B0B1032812D1224C76
:10AFD00000F0C6F800230DF107008DF80730FCF7EC
:10AFE00011FFE368013BE360E5686DB39DF807007E
:10AFF000FCF72EFF03B030BD184B0122C3F88020B0
:10B0000003B030BD144C00230DF107008DF807305C
:10B01000FCF7F8FE237853B1E3689DF8070001338D
:10B020000122E360A270FCF713FF03B030BD0C48AF
:10B030006360A3602361E36000F086F807F036FBED
:10B0400030B101232370E7E700F09CF8A570CDE74D
:10B0500000F086F8F5E700BF182C002000E100E0C2
:10B0600055AF020030B585B0047845688DF80040D2
:10B07000D0E90240064A074B039053F8213001956E
:10B080008DF8084052F821106846984705B030BD49
:10B090002C2C0020302C002030B585B00478456879
:10B0A0008DF80040D0E90240064A074B039053F860
:10B0B000213001958DF8084052F8211068469847D4
:10B0C00005B030BD2C2C0020302C0020F0B5194BE1
:10B0D0000678194D0C6991F81DE045F82640844624
:10B0E000164803F806E040F826200C4617460FCC19
:10B0F00089B06D460FC594E80F0085E80F000496EF
:10B10000BEF1000F0AD0002F0D4A69460CF1040071
:10B1100008BF3A4600F0CAFF09B0F0BD002F094A47
:10B1200069460CF10C0008BF3A4600F095FD09B0E5
:10B13000F0BD00BFFC3300202C2C0020302C002060
:10B1400065B0020099B00200044A137923B90121C5
:10B15000106091801846704785207047342C00207D
:10B16000074B1A68D20704D4C021012283F80013C8
:10B170001A604FF080430122C3F81825704700BFC2
:10B1800000E100E0044B01221A604FF08042D2F847
:10B190001834DB03FBD470470C00004010B5154B8E
:10B1A0001A6882B062B10021134A19601B68507995
:10B1B00000934FF080410123009CC1F80833A8B1EF
:10B1C0000E4B1A6882B100221A601B6801934FF07F
:10B1D00080420221084B0198C2F808131B68012025
:10B1E00002B0BDE81040184702B010BD116853719D
:10B1F0008847E5E700010040342C002004010040AE
:10B20000F0B5204C94F8585083B0002D36D14FF053
:10B21000FF334FF0FF364FF0FF372946042204F189
:10B220005400C4E90033C4E90233C4E90433C4E977
:10B230000633C4E90833C4E90A332365C4E90C675B
:10B24000C4E90E67C4E91067C4E9126707F006FC99
:10B250000D4A0E4B0E491D60C02082F806034020A7
:10B2600010601B68019301984FF0004301222846AB
:10B2700084F85820C1F8043303B0F0BD082003B0AF
:10B28000F0BD00BF402C002000E100E07C610040E8
:10B2900000600040034B93F85800003018BF0120B5
:10B2A000704700BF402C0020F0B5694B1C1894F982
:10B2B0003050002D63DA8E78C6F340069646002E95
:10B2C00057D01D68013500F0B6800124082553F8D9
:10B2D0002470013756D004F1010C53F82C7001375B
:10B2E0004FD0A71CAF4242D253F82720013200F0C2
:10B2F000A08004F1030CAC4539D253F82C7001370F
:10B300003FD004F1040CAC4531D253F82C70013716
:10B3100037D004F1050CAC4529D253F82C70013715
:10B320002FD004F1060CAC4521D253F82C70013714
:10B3300027D004F1070CAC4519D253F82C70013713
:10B340001FD004F1080CAC4511D253F82C70013712
:10B3500017D004F1090CAC4509D253F82C70013711
:10B360000FD00A34AC4202D2DC6A01345FD0042030
:10B37000F0BD1D6A013564D009240C25A7E708201B
:10B38000F0BD64461F1865B243F824E087F83050DA
:10B3900016B91C4484F848008A78540714D4D60798
:10B3A0003BD44C784FF0A04600F5E072A40046F87C
:10B3B0002240284EC40800F0070C375D012202FA33
:10B3C0000CF23A4332558A78097812F002021AD008
:10B3D000AB0003F1804303F5C0430202D3F810052C
:10B3E00020F4473020F44070C3F810050904D3F866
:10B3F000100501F4403102F4F8520A430243C3F845
:10B4000010250020F0BD083D2B44104693F8502035
:10B4100042EA811183F85010F0BD820002F1A0428F
:10B42000D2F8004724F00204C2F80047C1E70B2419
:10B43000A8E73C46A6E70025C3F800E084F83050B2
:10B44000AAE7082684F830601A6235463446A0E739
:10B45000402C0020942C002070B42D4C251883B073
:10B4600095F93030072B1CDD234493F848309B09B5
:10B47000032B40D0012B14BF4FF440314FF4003167
:10B48000800000F1A040D0F8002722F44032C0F83C
:10B490000027D0F800370B43C0F8003703B070BC6A
:10B4A0007047DAB2072AF9D8980000F1804000F519
:10B4B000C04003F140029200D0F8106592B202F150
:10B4C000804202F5C04246F00106C0F81065002037
:10B4D000106012680192019A0029DFD095F930209E
:10B4E00054F82220002AD9D001220A4902FA03F393
:10B4F000C1F80433D2E74FF0A043D3F81035C3406E
:10B5000013F0010F0CBF4FF400314FF44031B7E797
:10B51000402C0020006000404FF0A043D3F81035CD
:10B5200023FA00F000F00100704700BF2DE9F04160
:10B5300086B00023BD4A01931168012900F0C4813F
:10B540001E46BB4B1A68012A00F0B081B94B1A683D
:10B55000012A00F09D81B84B1A68012A00F08A8107
:10B56000B64B1A68012A00F07781B54B1A68012A98
:10B5700000F04E81B34B1A68012A00F03B81B24BB8
:10B580001A68012A08D0B14B1A68012A00F0A88174
:10B59000EEB906B0BDE8F081AD4AD2F80423120638
:10B5A000F1D500221A601968049160331968049873
:10B5B000012946F080060AD11A601B6805934FF0F6
:10B5C000A043059AD3F81035019346F00046A14FE9
:10B5D00000240125A30003F180432E4203F5C0435C
:10B5E0004FEA45050BD0D3F8100557F82420D3F8BF
:10B5F0001015C0F30420C1F3014102B1904701349A
:10B60000082CE7D1002EC4DA00224FF0FF33CDE939
:10B610000223904C012502AE94F950104F1C37D0F4
:10B62000C9B221F0C00006ABC2089F1801F00703A1
:10B6300017F80CCC05FA03F31CEA030F28D004EB2F
:10B64000000C89099CF930C054F82C80B8F1000F27
:10B6500000F09F81032900F09F81820002F1A04247
:10B6600017F8147CD2F800C71F40CCF3014C0BD064
:10B67000BCF1020F0CD1032900F0C5810027B8F1FD
:10B68000000F06D0C04704E0BCF1030F00F0A98111
:10B69000002794F95110481C31D0C9B221F0C000E4
:10B6A00006AB4FEAD00E03EB0E0C01F007031CF8BB
:10B6B0000C2C05FA03F31A4221D02218890992F9B9
:10B6C000302054F82220002A00F08181032900F064
:10B6D00081814FEA800E0EF1A0481CF814ECD8F8D6
:10B6E00000C71EEA030FCCF3014C00F03A81BCF115
:10B6F000020F04D1032900F0898102B1904794F927
:10B7000052104A1C31D0C9B221F0C00006AB4FEA3A
:10B71000D00E03EB0E0C01F007031CF80C2C05FAFD
:10B7200003F31A4221D02218890992F9302054F8E3
:10B730002220002A00F04181032900F041814FEAD4
:10B74000800E0EF1A0481CF814ECD8F800C71EEAD1
:10B75000030FCCF3014C00F0EC80BCF1020F04D1DC
:10B76000032900F0568102B1904794F953104B1C05
:10B7700031D0C9B221F0C00006AB4FEAD00E03EBC6
:10B780000E0C01F007031CF80C2C05FA03F31A4207
:10B7900021D02218890992F9302054F82220002A59
:10B7A00000F00181032900F001814FEA800E0EF1C3
:10B7B000A0481CF814ECD8F800C71EEA030FCCF31D
:10B7C000014C00F09B80BCF1020F04D1032900F072
:10B7D000238102B19047002F3FF4DBAE4FF0A0432E
:10B7E000019AD3F810359A423FF4D3AE029A0193EE
:10B7F000039211E7164AD2F8042351067FF5BFAE33
:10B8000000221A601B680493049B46F04006B6E6CB
:10B810000F4AD2F8042390067FF5ACAE00221A60DE
:10B820001B680493049B46F02006A3E600610040D9
:10B8300004610040086100400C610040106100405C
:10B8400014610040186100401C6100407C610040B0
:10B8500000600040402C0020714AD2F80423D40636
:10B860007FF583AE00221A601B680493049B46F0A8
:10B8700010067AE66A4AD2F8042315077FF570AEFF
:10B8800000221A601B680493049B46F0080667E6D2
:10B89000634AD2F8042357077FF55DAE00221A6091
:10B8A0001B680493049B46F0040654E65C4AD2F8F5
:10B8B000042392077FF54AAE00221A601B680493A6
:10B8C000049B46F0020641E65549D1F8046316F0A0
:10B8D00001063FF436AE136013680493049B30E610
:10B8E00000221A601B6805934FF0A043059AD3F815
:10B8F00010350193002E3FF487AE66E6BCF1030FCE
:10B900007FF469AF03297FF464AF4FF4003CD8F8AB
:10B91000003723F44033C8F80037D8F8003743EA3B
:10B920000C03C8F80037002A3FF458AF0137FFB2C4
:10B9300050E7BCF1030F7FF418AF03297FF413AF76
:10B940004FF4003CD8F8003723F44033C8F80037F0
:10B95000D8F80037013743EA0C03FFB2C8F80037C4
:10B9600001E7BCF1030F7FF4CAAE03297FF4C5AE33
:10B970004FF4003CD8F8003723F44033C8F80037C0
:10B98000D8F80037013743EA0C03FFB2C8F8003794
:10B99000B3E603297FF47CAE16F802C04CEA030C30
:10B9A00006F802C059E603297FF415AF16F80E8099
:10B9B00048EA030806F80E80F7E603297FF4D5AEBF
:10B9C00016F80E8048EA030806F80E80B7E6032949
:10B9D0007FF495AE16F80E8048EA030806F80E804C
:10B9E00077E603297FF44BAE4FF40037D2F80037E7
:10B9F00023F44033C2F80037D2F800373B43C2F893
:10BA0000003701273BE64FF44037EFE74FF4403C67
:10BA1000B0E74FF4403C95E74FF4403C77E700BF78
:10BA200000600040014B1B68184700BF9C2C0020A1
:10BA3000114B98421DD130B583B000230DF10700A2
:10BA40008DF807300D46FCF7DDF90C4B1C794CB92D
:10BA500001229DF807001D601A71FCF7F9F92046D4
:10BA600003B030BD9DF80700FCF7F2F9112003B0D8
:10BA700030BD0020704700BF002000409C2C0020FB
:10BA8000034B984203D1034B00221A601A7170478E
:10BA9000002000409C2C002030B56D4AD2F80433C1
:10BAA00099058BB066D5D2F82431002B62D00023E3
:10BAB000C2F82431D2F8243103934FF40171654B5D
:10BAC0000398C2F8081393F8291009B901215160AD
:10BAD0005F4902228DF81820D1F88024C1F8802413
